:100000000040002011000000FD040000FD0400007D
:1000100010B501F039F900F035FC00F08FFA00005E
:1000200070B572B699221C4B1C4D1A601C4B953A48
:100030001A601C4B7C321A601B4B763A1A601B4AC2
:100040001B4B18201A6002221A4B00241A6012233C
:100050002B6001F071F8F022174B12011A60174A59
:10006000174B18491A604022174B0D201C60174B84
:100070001A6000F095FF0D2000F0BEFF144B200029
:100080001C6001F009F9112303222B60114B1A6047
:10009000114B1D321A6070BD000302403000104049
:1000A0000000044008000440000304403104000044
:1000B00008030440180304400003014040FF00808F
:1000C0000000014025130000280003400401014006
:1000D0000C02224030003040000E3F400000000083
:1000E0000000000000000000000000000000000010
:1000F0000000000000000000000000000000000000
:1001000010B5064C2378002B07D1054B002B02D0ED
:10011000044800E000BF0123237010BD4801002007
:1001200000000000FC1F0000084B10B5002B03D09E
:100130000749084800E000BF07480368002B00D1CA
:1001400010BD064B002BFBD09847F9E700000000DC
:100150004C010020FC1F0000B8000020000000003F
:1001600010B5054C200001F04FF820686368010BC2
:10017000000589B2184310BDAC010020F8B5FFF7A7
:10018000EFFF00250C0422002B00801859412B00A2
:10019000220C801A99410B04040C1C43584B594DF6
:1001A000E118594B0A091A40584B09011940584B9C
:1001B0000A43D21893082B40564D92002A4013430D
:1001C000554AAC46554E9B18554D5A085B00324077
:1001D0002B401343534A54499B18544A1F0A1B028D
:1001E0000F4013403B4307013A00F027504D3F03B7
:1001F0002B60504B174023401F434F4B4B4AFF1877
:100200003B0A3F0217400B404C4A3B439B183D4A78
:100210009F08DB43174062469B0013401F43484B37
:10022000394AFF18FB431B091340384A3F01174066
:10023000444A3B439B183A4A5F085B0037401340EF
:100240003B436B60F02307041B053B403E4F374A9E
:1002500027403B43F02707401F433C4B0002FF1859
:10026000FB433F021B0A17400B40394A3B439B1894
:100270001F09DB43244A1B011740244A13401F4334
:10028000344B204AFF18FF43BB0813406246BF00AF
:100290001740314A3B439B18214A5F085B003740B7
:1002A00013403B43AB602D4B1C40F0231B01184017
:1002B0000443E0436400400814400640284B2643B2
:1002C000F6183309F643104A360113400F4A164018
:1002D0001E43244B154AF618F34336021B0A1940F5
:1002E0003240214B0A43D218D243064993080B40AF
:1002F000614692000A401A431C4BD218EA60F8BDCE
:1003000059C9947F333333330F0F0F0FF0F0F0F0F0
:100310004E384E0ACCCCCCCCDC84235755555555A1
:10032000AAAAAAAA247BDCA8FF00FF0000FF00FF06
:10033000B4010020FFFFF0FF41BD4B3946F6AC3F52
:10034000DAE94D414299797E0FFFFFF02DB1F6B207
:10035000B2C3ED1B731F94F5DBAEE973FFF0FFFF33
:1003600038E47C2339DEC7D99A0FEC4100C1C62896
:100370000023F0B585B06946114A9A1812785A548C
:100380000133102BF7D1009B1FBA019B1EBA029BB1
:100390001DBA039B1CBAFFF7F1FE0A4B00201A6836
:1003A00097420AD15A68964207D19A68954204D179
:1003B000D868001B4342434158B2C0B205B0F0BDFB
:1003C000F0F7FF0FB401002010B590B040220B49A8
:1003D000684601F0D7F9002318006C4608495A42D4
:1003E00059180978A25C914201D00130C0B2013B9A
:1003F0001A004032F1D110B010BDC04600200000FC
:10040000FF27000010B50A2000F022FE094800F086
:1004100065F80A2000F01CFE8022074B52001A608B
:10042000064A074B1A604022064B1A6000F076FC21
:1004300010BDC046402000000003014041FF008085
:1004400000000140B000002010B500F0D1F800F02D
:10045000D1FF002811D1063000F0B4FF012000F0D8
:10046000BDFF00F0C7FF002803D100F0ABFFFFF78E
:10047000C9FF002000F0A6FF14E000F0DBFF002819
:1004800010D1063000F0BEFF012000F0C7FF00F0E1
:10049000D1FF002803D100F0B5FFFFF7B3FF002024
:1004A00000F0B0FFFFF764FF002805D0642000F0E3
:1004B000CFFD00F033FC08E0FFF786FF002801D1F4
:1004C00000F02CFC044800F009F8642000F0C0FDA6
:1004D00000F09CF8FEE7C046532000000FB400B5C2
:1004E000B5B036AA02CA02A8019201F075F902A8B5
:1004F00000F036F935B008BC04B0184710B501F06B
:1005000015F903680C2B00D1FEE7FEE7030010B5D8
:1005100080240849084A08686401C3189A1AA2424C
:1005200001DC0B6005E001F001F90C230360012000
:10053000404210BDBC00002018020020F8B5002584
:100540000F49104B01394A1C14D000221F685C6807
:100550009E68A018B24203D0B858A0500432F8E701
:100560000200DE68141AA64201D020C2FAE7103356
:100570000139E8E701F0E0F8FFF766FFFEE7C04663
:10058000010000001C210000002370B50B480C4C3A
:100590000C4D9A002100032B00D8A958013381503B
:1005A0002C2BF6D1FFF73CFD074B1A68002A00D12F
:1005B0001A608022054B92051A6070BD0000002071
:1005C000FD04000000000000B000002008ED00E085
:1005D0008021064A10B5136809060B4313600820F2
:1005E00000F00AFD00F096F810BDC046000025405E
:1005F00010B5054C2378002B03D100F01DF8012322
:100600002370FFF7E5FF10BD6401002010B508203E
:1006100000F0FCFC00F090F8054A082013685B002D
:100620005B0813600022034B1A6000F0F9FC10BD58
:1006300000002540880F254070B5002407210425BF
:100640001C4A1D4B08201A601C4B1D4A1C601D4B88
:100650001A601D4B1D4A13601D4A11601D4A063960
:1006600014601D4A11601D4A13601D4B1C601D4B18
:100670001D6000F0CBFC0321082000F09DFC1A490E
:10068000082000F08DFC194B1C60194B1C60194BA5
:100690001C60194B1C60194B1D60194B1C601A68BB
:1006A000184B1A80184B1C60184B1C60184B1C70A0
:1006B00070BDC0460C0000020000254040002540EF
:1006C00001000A0048002540070000800003254083
:1006D0000403254010032540440025400002254026
:1006E0000402254050002540E9140000880E2540F2
:1006F000C80E2540480F2540080F2540C80F25404B
:10070000880F25406C010020C8010020C401002092
:10071000CC010020F021054A13688B4360390B435C
:100720001360034B1A88034B1A60704700030240A2
:100730006C010020880F2540F021064A13688B4386
:100740001360054B1A68E423DB001340034A13804F
:100750007047C04600030240880F25406C0100200E
:1007600010B504000134631E1878002802D000F090
:10077000A1FEF7E710BD004770B506000D0014009C
:10078000002802D0002000F055FC00207519002C34
:1007900005D0013C2B191B78C018C0B2F7E770BD1B
:1007A000FF23020070B59A43C0B01300541C6A4680
:1007B000FF34D51A1E78EE540133A342FAD1C3B2E6
:1007C000D45C8C4205D0000AD15480B2110000F0F4
:1007D0003BFB40B070BD0000013810B50B2830D88D
:1007E0000902494200F002FF06080A0C0E1014121A
:1007F00016191B20174B13E0174B16E0174B0AE096
:10080000174B12E0174B0BE0174B09E0174B02E0B8
:10081000174B00E0174BC91817E0174B05E0174BB3
:10082000C9180878C0B214E0154BC9180A7848787E
:100830008C780002230418430300C8781343000691
:1008400006E0002000F0F6FB00210B78487800025B
:10085000184310BDC0FF0100C1FF0100C5FF01002A
:10086000C9FF0100D0FF0100D1FF0100D6FF010048
:10087000D2FF0100D4FF0100D8FF0100DCFF01001E
:10088000E0FF01000C4B10B51A68102313400B4A0F
:1008900000D113601368802B0DD1002402202100A9
:1008A0001460FFF799FFA04205D021000220FFF756
:1008B00093FFFFF760FF10BD54000340B00000201D
:1008C000F8B5010004000320FFF786FF21000600B1
:1008D0000420FFF781FF210007000620FFF77CFFBF
:1008E0000025012828D021000320FFF775FF0136DD
:1008F0003602F7192E0001300002B84209D20378FF
:100900005A1ED2B2FD2A00D80126ED18EDB20130F0
:10091000F3E721000120FFF75FFF6D42EBB20625F0
:10092000834209D1002E07D0044B24026042C01834
:100930000121FFF735FF00252800F8BDD1FF010098
:10094000F0B5C24CA54400F009FE62B6002700973E
:100950000197962103AC46ADFF23220049002800F1
:1009600000F004FE0028F4D12188062900D8AFE168
:100970002A780423012A5CD16E88F21D8A4200D9AC
:1009800086E0962149008A4200D981E0AA1992792D
:10099000172A4ED1F3189BB2002B08D0DCAAAC4921
:1009A000D21852181278013B801880B2F3E7AB19C5
:1009B0005A7940421B79120280B21A4308238242BC
:1009C00037D167E0342B00D0D6E0009B012B00D05C
:1009D0007EE1032E00D07BE180220021520091A80D
:1009E000802700F0D8FE7F00182191ABD819FF3185
:1009F00002ABF21EC91800F0C5FE0423F619FF333E
:100A0000B6B29E4200D01BE116228B21FF3202AB10
:100A10009B18490002AA521810781B78000218434C
:100A20008C4B0700984200D824E1FF3BFF3B00932A
:100A30000933002546A8012143702B0AC370002307
:100A400002AA06320170291D1580857089B200291D
:100A500009D0DCAC7E4E6418A419247801391B1926
:100A60009BB289B2F3E7DCA97B4C49195B420C19B4
:100A70009BB22370794C1B0A0C192370784B0735F5
:100A8000C91817230B70A9B27F3300F0A0FD60E7EF
:100A90000323CEE76B782C79180031380A282ED939
:100AA000704A1568002D26D0009A012A25D106AC7F
:100AB00002AA13725681002147AE0C22200005962F
:100AC00000F069FEA660210004A8A8472623A58897
:100AD000FF339D4202D9A368B34207D0A268002A1F
:100AE00001D1002D04D12368DBB2A3E70E23A0E7D8
:100AF0000E2315009EE705239CE7052399E700F0E8
:100B00007FFD0B001B00CFFF61FF4300CFFF4900BB
:100B10005D0061FF7B009200009B012B00D0D7E0BD
:100B2000002E00D0D4E03000FFF7CAFE434243411C
:100B30002B713300009D7DE7009B012B00D0C7E0A7
:100B4000012E00D0C4E0002C00D0C1E0464B1B6851
:100B50001B685A0CD2B2002A02D1DB03DB0D01E084
:100B600080239B002B711B0A6B71FF23AB71FE3B33
:100B7000EB71002304255DE7009B012B00D0A7E06B
:100B8000022E00D8A4E02FE7009B012B00D09FE0AD
:100B90000027DEE6009B012B00D099E02C33F519ED
:100BA000FF339D4200DD73E791ABD819320047A9AE
:100BB00000F0E8FD0023AFB21D003BE7062E00D099
:100BC00086E02A4A06AB94461000190014C814C1E6
:100BD0006246013EF6B29019A919007A0979884255
:100BE00076D1002EF5D147AA03CB03C201233700EB
:100BF0000093082533001DE7009B012B68D1032ECD
:100C000066D116228B21FF3202AB9B18490002AA43
:100C1000521816781B7836021E430E4B9E4259D945
:100C2000F63BFF3B05E70020FFF74AFE002802D114
:100C300080220F4B1A6000F095FC00F0FDF947E0B0
:100C400001230027009302333D00F3E68CFCFFFFF5
:100C5000A7FDFFFFFF010000ACFDFFFFADFDFFFFA3
:100C6000AEFDFFFF70010020C00000209C200000AE
:100C7000B0000020274B1B681A68130AD2B29BB23F
:100C8000002A01D001339BB26402381984B29C421D
:100C900014D3019B002B0BD180221900520006A80F
:100CA00000F079FD06A91C4800F0CEF8012301935D
:100CB00091A9200000F0C8F8002804D001230027E3
:100CC00000930933C0E70123070000930300BBE74B
:100CD0000423AEE680226102891909025200002035
:100CE000FFF74AFD0500002C0ED10B4B9E420BD1A5
:100CF00021000520FFF770FD21002D1A0620FFF7C7
:100D00006BFDEDB22D1AEDB26D4246AB1D710023A5
:100D100001258FE6C0000020FF01000070B5002013
:100D2000FFF7CEFD431E98410624134D40422B6829
:100D300004401A68C021C03A0020FFF71DFD6B680F
:100D40001B78181AC0B2834203D12B681B68002B92
:100D500002D1002000F06EF9084B19681A004029F2
:100D600001D0002C03D000231360FFF7E9FD80229F
:100D70001A6000F061F970BDC0000020B0000020D2
:100D800082B06A460B4B0C4900930C4B01930C4B01
:100D90001A600C4A1160C0461A68120F0F2A04D05C
:100DA0001A680020120F0A2A01D01868C0B202B0D7
:100DB0007047C046B6E900001600008074010020AC
:100DC0000800104004001040094B0A4A0A491A6002
:100DD0000A4A1160C0461A68120F0F2A04D01A6816
:100DE0000020120F0A2A01D01868C0B27047C0460E
:100DF00008001040B6E80000150000800400104014
:100E000082B06A460B4B0C4900930C4B01930C4B80
:100E10001A600C4A1160C0461A68120F0F2A04D0DB
:100E20001A680020120F0A2A01D01868C0B202B056
:100E30007047C046B6EA0000170000807401002029
:100E40000800104004001040F0B50024304BC7B03B
:100E5000029406000394984255D8A14253D08022B0
:100E600006A8520000F08EFC2A4B2B4D0493FF2362
:100E70002A492B4A04AF7B602F600A60C0462A686B
:100E80000191120F0F2A03D02A68120F0A2A01D0EB
:100E90002C681C400294029B002B36D100F0DDFA36
:100EA0000400FFF76DFF0390039B002B02D1FFF7B7
:100EB0008BFF0290029B002B16D11A4A1A4904920A
:100EC000049A0198360416430496134A2F60016071
:100ED000C0462968090F0F2903D01168090F0A2994
:100EE00001D01368DBB20293039B002B07D1FFF7FD
:100EF00087FF0390039B002B01D0039B02932000EC
:100F000000F0AFFA01E004230293029847B0F0BD6D
:100F1000FF010000B6D70000080010400400104098
:100F200004000080B6D800000500008070B5050000
:100F300000F093FA0400102D04D803210E4A136820
:100F40008B4307E0202D07D803210B4A13688B43FE
:100F500002390B4313600AE0302D05D80321064AFD
:100F600013688B430139F4E7002000F063F8200098
:100F700000F077FA70BDC04630001040024A034BC3
:100F800011680B401360704700002240FFFFFFBF55
:100F9000024B18684000C00F7047C0460000224056
:100FA0001B2800D901BE034B8000C31818681960C4
:100FB0007047C04640000020F8B504000E00032929
:100FC00000D901BE1B2C00D901BE032725003D40DE
:100FD000BD400635AF40AE4000F03FFAA408054BD7
:100FE000A400E4182368BB431E43266000F039FACE
:100FF000F8BDC04600E400E01F2318401E3B8340BC
:10100000014A13607047C04600E100E01F2318400A
:101010001E3B8340014A13607047C04680E100E0F8
:101020001F2318401E3B8340014A13607047C0468F
:1010300080E200E001BE7047034A044913689BB296
:101040000B4313607047C0460CED00E00400FA0546
:1010500070B5802504002D02064BAC4205D95868B6
:1010600000F0F2F9044BE418F6E79868604300F0EA
:10107000EBF970BDC80000200080FFFF37B500F01D
:10108000FDF8002842D000F0E8F91C21204B214A4D
:101090001B6812689B008A400B40920F1833D340A4
:1010A00080251D491D4A04000868ED0110401C4AB6
:1010B0005A435219D20B013A0243192B01D8194B4A
:1010C0000EE0194D19481818EB18A0251A3B0078A6
:1010D0001B786D031B182A43FF2B00D9FF239B05A8
:1010E0001A43134D0A602B6830200193FFF71EFF4F
:1010F0008021104AC905136814200B431360FFF7C1
:10110000A7FF019B20002B6000F0ABF937BDC04664
:10111000080F0340280003400800224000F800C0E8
:1011200040420F000000D43FAA2000004DF3FF0F03
:101130003000104000002240F7B50500183D0400C3
:10114000182D46D80126244B3700EB409F4340D151
:1011500000F083F90190FFF71BFF0097002802D0F1
:10116000FFF70CFF009607271C4E1D4A33681D49E8
:10117000BB4333601C4BE3181B78DBB213601B4A84
:101180001368BB4313601A4B0A68E31818787F236F
:101190009A43034013430B60322000F055F9182C9A
:1011A0000ED033681C3CA408BB433C401C43346055
:1011B000322000F049F93368AD08BB431D43356068
:1011C000009B012B01D1FFF759FF019800F049F96D
:1011D00000E001BEF7BDC04611111101080F034028
:1011E0000C0F0340180F03404DF3FF0F100F034087
:1011F00034F3FF0F10B5034B1B7B584300F024F969
:1012000010BDC046C8000020144B1A78144BD1B250
:1012100001601B781B020B431A000360114B1B7803
:101220001B041343104A0360127812061343036031
:101230000E4B1A780E4BD1B241601B781B020B4348
:101240001A0043600B4B1B781B0413430A4A43608C
:1012500012781206134343607047C04678F2FF0FBE
:1012600079F2FF0F7AF2FF0F7BF2FF0F7CF2FF0F94
:101270007DF2FF0F7EF2FF0F7FF2FF0F014B186828
:10128000C00F704700002240014A024B1A607047AD
:101290006588EDAC3800034070B5154D04002B682F
:1012A000144E9B0F9B07984215D0032233687C2075
:1012B000934333602B689B0F00D09030FFF79AFF69
:1012C00000F0CBF82B68A40F9B009B08A4071C43DD
:1012D0002C6000F0C6F803223368934319002B6892
:1012E0009A0F5342534101330B43336070BDC046E4
:1012F0000C0222401402224010B5040000F0ADF8A8
:101300000549064A0B681440054A134023430B6005
:101310000B6800F0A6F810BD10022240040404007F
:10132000FBFBFBFF042270B5224C2368134213D051
:1013300021490B6813420CD0204B5D6908681540A9
:10134000A84308605969914359619B68002B00D0FC
:1013500098470420FFF7D0FF80232268DB001A4261
:1013600015D015490A681A420DD0144A5569086803
:101370002B40984308605169114B0B405361D3686F
:10138000002B00D098478020C000FFF7B5FF8023D6
:101390002268DB021A420CD0074A12681A4204D0B3
:1013A000064B1B69002B00D098478020C002FFF736
:1013B000A3FF70BD10022240DC0000208C01002041
:1013C000FFFBFFFF034A044B116840020B40184328
:1013D0001060704708030440FFF1FFFF0823044931
:1013E000C0000A689A43D2B2034013430B607047AF
:1013F00000030440024B18680007C00F7047C04646
:1014000004030440034A044B116880010B40184355
:1014100010607047080004403FFEFFFF04230449AA
:1014200080000A689A43D2B2034013430B607047AE
:1014300000000440024B18684007C00F7047C046C8
:1014400004000440000000000230800803D0013096
:101450000238FCD1C046C0467047EFF3108072B628
:10146000704780F310887047084B094A1968136861
:101470000020994208D013680133412B00D10300AA
:101480000449C85C1360C0B27047C046C801002060
:10149000C4010020CD010020044B1868044B1A68D9
:1014A0001B68904200D24130C01A7047C80100202A
:1014B000C40100201F2204490B681340082BFBD0F5
:1014C000024B18607047C046080225404002254084
:1014D00070B504004518AC4204D02078FFF7EAFF4D
:1014E0000134F8E770BD0000134B70B51B68002B8A
:1014F00000D09847114B1B685B071CD520241F2088
:101500000F490B680133412B00D100230D4A1568A8
:101510000D4AAB4203D113680C4B1C7004E01268F7
:101520000B4DD2B2EA540B600A4B1B680342E8D160
:101530000422094B1A6070BD68010020CC0F2540C1
:10154000C8010020C401002040032540CC01002038
:10155000CD01002008032540C00F254010B5FFF73E
:1015600047F810BD10B5FFF751F810BDF8B50400ED
:101570000F0016000120002C28D0002926D00A25B3
:101580005D43FFF789FF002810D0FFF785FF0500B6
:10159000AE20FFF72FFEFFF77FFF8542F5D1390020
:1015A000AF4200D929003180651807E00120013DD4
:1015B000FFF74EFD002DE4D1102007E0AC4204D02F
:1015C000FFF752FF20700134F8E70020F8BD70B536
:1015D00001230C001500002805D0002903D0FFF7D7
:1015E00077FF00232C80180070BD000002B4714604
:1015F00049084900095C49008E4402BC7047C04656
:1016000003B47146490840004900095E49008E4410
:1016100003BC7047002243088B4274D303098B42FA
:101620005FD3030A8B4244D3030B8B4228D3030CB2
:101630008B420DD3FF22090212BA030C8B4202D354
:101640001212090265D0030B8B4219D300E0090A7C
:10165000C30B8B4201D3CB03C01A5241830B8B4285
:1016600001D38B03C01A5241430B8B4201D34B036E
:10167000C01A5241030B8B4201D30B03C01A5241D3
:10168000C30A8B4201D3CB02C01A5241830A8B4258
:1016900001D38B02C01A5241430A8B4201D34B0241
:1016A000C01A5241030A8B4201D30B02C01A5241A5
:1016B000CDD2C3098B4201D3CB01C01A5241830959
:1016C0008B4201D38B01C01A524143098B4201D393
:1016D0004B01C01A524103098B4201D30B01C01ABE
:1016E0005241C3088B4201D3CB00C01A5241830838
:1016F0008B4201D38B00C01A524143088B4201D365
:101700004B00C01A5241411A00D2014652411046C4
:101710007047FFE701B5002000F006F802BDC046A3
:101720000029F7D076E770477047C046014B18682C
:101730007047C046400100200E4B70B500251E00CA
:101740000D4CE41AA410A54204D0AB00F3589847FE
:101750000135F8E700F0D0FC084B00251E00084CCE
:10176000E41AA410A54204D0AB00F3589847013501
:10177000F8E770BD042100000421000004210000EE
:101780000C210000002310B59A4203D0CC5CC45455
:101790000133F9E710BD03008218934202D019709B
:1017A0000133FAE77047000030B59BB00091049117
:1017B00008496D4602910591012182244942E9813F
:1017C000A4006946AC8100F075F80023009A1370FC
:1017D0001BB030BDFFFFFF7F10B513000A000100F2
:1017E00002480068FFF7E0FF10BDC046400100203E
:1017F000F0B58E6885B007000C00039201939E42FD
:1018000043D890238A89DB001A423ED00325096918
:10181000236801985B1A029363695D43EB0F5D19BE
:10182000029B6D1001331B18AB4200D91D005305FC
:1018300010D52900380000F037FB061E14D0029A9C
:101840002169FFF79FFFA289194B134080221343A0
:10185000A38112E02A00380000F086FB061E0CD19E
:101860002169380000F0D4FA0C23402201203B60AB
:10187000A38940421343A38117E0029B2661F61817
:1018800026606561019EED1AA560019BB34200D2FE
:101890001E0032000399206800F0A5FA0020A3681A
:1018A0009B1BA36023689E19266005B0F0BDC0464F
:1018B0007FFBFFFFF0B59FB0029005938B890F006F
:1018C00016001B0610D50B69002B0DD1402100F02E
:1018D000EBFA38603861002804D10C23029A0138F1
:1018E0001360D8E040237B61002306AD6B61203399
:1018F0006B761033AB7634002378002B03D1A31B17
:10190000049312D003E0252BF9D00134F4E7A31B94
:10191000320039000298FFF76BFF431C00D1B4E09E
:101920006A69049B944663446B612378002B00D161
:10193000ABE00122002352426A6002A954325218DD
:1019400001342B60EB60AB601370AB65534E2178B4
:101950000522300000F03CFA002807D00123801B4C
:1019600083402A68013413432B60EFE72B68DA06C3
:1019700004D55322202102A8121811701A0704D589
:1019800053222B2102A81218117022782A2A03D080
:10199000099B00200A210EE0059A111D126805918D
:1019A000002A01DB099204E05242EA60022213435A
:1019B0002B6001340BE02278303A092A04D84B43DB
:1019C00001349B180120F6E7002800D00993237802
:1019D0002E2B1ED163782A2B0AD1059B02341A1DA7
:1019E0001B680592002B01DA01235B42079310E08C
:1019F00000230A201A0001346B602178303909294C
:101A000004D84243013452180123F6E7002B00D0DA
:101A10000792234E21780322300000F0D9F90028E4
:101A200006D04023801B83402A68013413432B6077
:101A3000217806221B48661C297600F0C9F9002887
:101A400012D0194B002B06D10722059B0733934375
:101A50000833059314E005AB00933A00134B2900BB
:101A6000029800E000BF07E005AB00933A000F4B7F
:101A70002900029800F08AF80390039B013304D0F8
:101A80006B69039A9B186B6135E7BB890B985B0602
:101A900001D5012040421FB0F0BDC046C320000068
:101AA000C9200000CD20000000000000F117000058
:101AB000F7B5170001938A680B6900900C009342F8
:101AC00000DA130022003B6043321278002A01D072
:101AD00001333B6023689B0602D53B6802333B60C1
:101AE000062523681D401ED0230043331B785A1E51
:101AF0009341226892061CD53020E11843310870CA
:101B000021005A1C45310978A21843320233117062
:101B10000FE022000123193201990098089EB04776
:101B2000431C0ED00135E3683A689B1A9D42F0DBF6
:101B3000DAE72200019943320098089DA847431C28
:101B400002D10120404220E006232068E1683A6883
:101B500003400025042B03D18D1AEB43DB171D40F6
:101B6000A3682269934201DD9B1AED180027BD424C
:101B70000AD0220001231A3201990098089EB0472A
:101B8000431CDED00137F2E70020FEBDF0B58BB07C
:101B900006920A0043320793059004920A7E0C00D5
:101BA000109B6E2A00D1ABE011D8632A22D009D84D
:101BB000002A00D1B5E0582A00D0C5E045310A70AE
:101BC000814A4FE0642A1DD0692A1BD0BCE0732AE9
:101BD00000D1AAE009D86F2A29D0702A00D0B3E03A
:101BE000202209680A43226037E0752A1FD0782A2C
:101BF00033D0A9E00E001A684236111D196013682F
:101C00003370A4E021681A68080606D4490604D592
:101C1000111D19600023D55E02E0111D19601568C1
:101C2000002D3BDA2D23049A6D42137036E02168B3
:101C30001A68080606D4490604D51568111D1960EE
:101C4000ADB202E0111D196015685F4B227E03934F
:101C500008276F2A1DD00A271BE022007821453271
:101C600011705A4A19680392081D226818600D689D
:101C7000100602D4500600D5ADB2D30702D52023FA
:101C80001A4322601027002D03D1202322689A4393
:101C900022602300002243331A7002E00A274A4BD5
:101CA00003936368A360002B09DB0422216891433E
:101CB0002160002D05D1049E002B11D07BE0002D6A
:101CC00079D0049E28003900FFF72AFD039B013ECE
:101CD0005B5C280033703900FFF79CFC051EF1D1D6
:101CE000082F09D12368DB0706D563682269934270
:101CF00002DC3023013E3370049B9B1B23612BE0ED
:101D000009681A68080607D4490605D5111D196027
:101D10001368A28A1A8004E0111D196013686269B1
:101D20001A600023049E236116E01A68111D1960D1
:101D3000166800216268300000F04AF8002801D0DF
:101D4000801B6060636803E0260042363270012326
:101D500023610023049A1370079B09AA00932100B2
:101D6000069B0598FFF7A4FE431C02D101204042C8
:101D700027E02369320006990598079DA847431C70
:101D8000F4D0236800259B070FD4099BE068984294
:101D900017DA180015E02200012319320699059878
:101DA000079EB047431CE1D00135E368099A9B1AAE
:101DB0009D42F0DBE9E72600039B42361B78337037
:101DC0008EE70BB0F0BDC046D4200000E520000037
:101DD000C9B28218904204D003788B4202D00130FD
:101DE000F8E70020704710B5884202D98B18984256
:101DF00001D3002305E09B1A013A08D3995C815472
:101E0000FAE7934203D0CC5CC4540133F9E710BD28
:101E100070B50500002944D00C1F2368002B00DAA0
:101E2000E418280000F0D8F81E4A13681100002BAF
:101E300002D16360146031E0A3420DD92268A0187A
:101E4000834203D118685B688218226063600C606B
:101E500024E0A24203D813005A68002AF9D11E6870
:101E60009819A0420BD12168711858181960824244
:101E700014D110685268411819605A600EE0A042EF
:101E800002D90C232B6009E021686018824203D13B
:101E9000106852684118216062605C60280000F0A0
:101EA0009CF870BDA8010020032370B5CD1C9D4394
:101EB000083506000C2D01D20C2501E0002D01DBB8
:101EC000A94202D90C23336048E0300000F084F8C6
:101ED000234B1C681A002100002913D00B685B1BE0
:101EE0000DD40B2B02D90B60CC181EE08C4202D112
:101EF000636813601AE04B6863600C0016E00C0026
:101F00004968E9E7174C2368002B03D1300000F043
:101F100051F820602900300000F04CF8431C18D024
:101F20000323C41C9C43A0420DD12560300000F067
:101F300054F8200007220B30231D9043C31A0ED003
:101F40005A42E2500BE0211A300000F033F8431CF3
:101F5000EBD10C233000336000F03FF8002070BD5F
:101F6000A8010020A4010020F8B506000C0015000F
:101F7000002904D11100FFF797FF040018E0002AA0
:101F800003D1FFF745FF2C0012E000F027F885424F
:101F90000ED929003000FFF787FF071E07D0210068
:101FA0002A00FFF7EFFB21003000FFF731FF3C0074
:101FB0002000F8BD002370B5064C05000800236022
:101FC000FEF7A4FA431C03D12368002B00D02B603A
:101FD00070BDC04610020020704770470B1F1A6882
:101FE000101F002A04DA891804390B68D018043845
:101FF00070470000002200002A00000000000000DE
:10200000F7FF7018B2C0300154144A1378184B10FF
:102010003C57F905F00038200020D80E2B053B6115
:102020000023E023FDC2F7FF7018B2C03001541541
:102030004A1D78184B1AF917F0000020D80C2D090A
:10204000626F6F746C6F6164657220737461727417
:102050000D0A0054686520626F6172642069732004
:102060006E6F74206163746976617465642C20708E
:102070006C6561736520616374697661746520695C
:102080007420776974682074686520616374697668
:10209000652E63796163640D0A000000B5116A253D
:1020A000003C0101D91F5DC38D2AEEDBC9B9AA9B93
:1020B0008E82766B60564D443B332C241D17100ADC
:1020C000044300232D302B2000686C4C00656667AC
:1020D000454647003031323334353637383941429E
:1020E0004344454600303132333435363738396170
:1020F0006263646566000000F8B5C046F8BC08BCC1
:102100009E4670472901000089050000F8B5C046C9
:10211000F8BC08BC9E467047010100003021000059
:10212000B800002090000000D00000000000000077
:102130000000000018020020F41F0000F81F00003B
:10214000010000000000E02EC05D0000180000004B
:1021500000366E01040404000000000000000000CE
:10216000000000000000000000000000000000006F
:102170000000000000000000C1200000000000007E
:10218000000000000000000000000000000000004F
:10219000000000000000000000000000000000003F
:1021A000000000000000000000000000000000002F
:1021B0000000000000000000E0000020000000001F
:1021C000000000000000000000000000000000000F
:1021D00000000000000000000000000000000000FF
:1021E00000000000000000000000000000000000EF
:1021F00000000000000000000000000000000000DF
:102200000040002011220000415C0100415C0100FF
:1022100080B5044B00AF83F3088813F031FF13F04F
:1022200035FDC0460040002070B572B60024414B19
:10223000414A1C60414BC7211A60414B414A1C6016
:10224000414B49001C60414B20251C600523136055
:102250003F4A11603F4A136012223F4B1A6013F04D
:10226000F7FE302014F048FAE8223C4B52011A6085
:102270003B493C4B3C481960C021890001603B4808
:1022800018603B4801603B493B4819603B490A6084
:102290003B491960F821490101603A4818603A4801
:1022A00004603A4818603A4802603A4A0D201A60C1
:1022B000394A1160394A3A491A604522394B1D6042
:1022C000394B1A60394B033A1A60394B013A1A609C
:1022D000384B06321A60384B013A1A60374B033AD2
:1022E0001A60374B01321A60364B043A1A6014F008
:1022F0003DF90D2014F066F98020334BC0051C60B9
:1023000013F0E0FE0322314B01201A608022304B93
:1023100012061A6008222F4B1A602F4B1D6006F020
:10232000F1FB62B614F08CFA2C49042014F0B8FAD0
:1023300070BDC04600030240FF0F000000040240D1
:102340000803044000040440180304400003044050
:1023500008040440180404403000104014030140F5
:1023600045FF0080000001400803014042FF00805B
:102370000403014041FF0080100301400C030140B1
:1023800043FF008044FF00800003014040FF0080C5
:102390001803014046FF00801C03014047FF0080F6
:1023A000BD630100280003404801014030010140A5
:1023B0002C010140100101400C01014008010140C5
:1023C00004010140000101400C0222403000304075
:1023D00000003A4000033A40000E3F40F58A0000FA
:1023E00010B5064C2378002B07D1054B002B02D0EB
:1023F000044800E000BF0123237010BD58010020F5
:10240000000000002CB40100044B10B5002B03D0D9
:102410000349044800E000BF10BDC04600000000B2
:102420005C0100202CB40100F0B5002301250A480E
:102430000A4C0B4E08211A5D5040421028400700FC
:1024400090B2002F01D0724090B201390029F4D12E
:102450000133342BEED1F0BDFFFF00007C010020E2
:1024600001A0FFFF70B59CB06A4604252F4B961D56
:1024700013802F4B2F491B789570D3702E4B300053
:102480001B78002413712D4B1B7853710F2218F009
:102490001BFB16206B460F22294968445C7518F017
:1024A00013FB284B29201A786B460733DA77264B23
:1024B00026491A7802ABDA77254B68441A780AABBA
:1024C0001A702022F47718F03FF9224B4A201A782C
:1024D00049236B441A7020492022684418F034F9CB
:1024E0006A2021002A00684418F04AF91B4CA368AE
:1024F0006D2B0ED965686E226946280018F016F912
:10250000002806D001236E2269462800237318F0A4
:102510001BF920000AF0F8FB1149031E114800D1F5
:10252000114912F06BF91CB070BDC0463CCCFFFFE6
:10253000C40000200015002076100020BC00002000
:102540001015002074100020CC0000205410002032
:1025500075100020F0010020D0010020B41B0020E5
:1025600038B40100E41B00204EB401008021F0B516
:10257000474C9DB0200089000AF0A5FBA3686D2B95
:1025800004D96E226846616818F0DEF86B46414A4D
:102590001D88414C4149424B4248434F954248D1E6
:1025A0006A469278042A44D16A46D278002522707D
:1025B0006A4612790A706A4652791A706B460F227F
:1025C000991D18F081FA1621384C0F2269443848B9
:1025D000E55518F079FA374B2921E5546B46073356
:1025E000DD7F354B69441D7002ABDA7F334B3448D5
:1025F0001A700AAB1A78334B1A70202218F0A4F81C
:1026000049234A216B441C782F4B20222F486944D0
:102610001C7018F099F82E4A002D00D12D4A2C4B31
:10262000002C00D12B4B2C492C4812F0E7F81DB0A0
:10263000F0BD012222700024294D1A700C700E3258
:10264000A91D18F041FA2900184E0F22163118481A
:10265000F45518F039FA0822164B2100F454164BA1
:1026600017481C70154B1A70164B18321C7018F056
:1026700087F8154B2022210014481C7018F080F8B0
:102680001849164812F0BAF8FFF7ECFECFE7C0463B
:10269000B41B00203CCC0000C400002076100020B9
:1026A000BC00002000150020CF02000040120020D6
:1026B00010150020DF02000074100020CC00002064
:1026C0005410002075100020F0010020D0010020DF
:1026D00031C101004EC1010068B40100E41B0020BB
:1026E0007CB501008BB40100012370B50024194AA8
:1026F000194D1370194AA91D1470194A19481370FD
:102700000F2218F0E1F92900174E184B0F2216314D
:102710001748F45418F0D8F908222025154B210049
:10272000F454154B15481C70154B1A70154B2A00A4
:102730001C7018F025F8144B2A00210013481C7057
:1027400018F01EF8FFF78EFE1149124812F056F8E5
:1027500070BDC046C40000207CB50100761000208A
:10276000BC0000200015002040120020CF02000015
:1027700010150020DF02000074100020541000200B
:10278000CC00002075100020F0010020D0010020B6
:10279000ACB40100E41B002070B506F097FCFA21F0
:1027A0001C4D89002B681C4CC01A14F095FE6369FF
:1027B000C018606106F08AFC002328602386FFF7BA
:1027C00033FEA623154D2086AA685B009A4210D3DB
:1027D0006E6834221936FF362100300017F0A6FF4C
:1027E000002806D001233422210030002B7317F07B
:1027F000ABFF28000AF088FA094C0A49002804D0E7
:1028000006F064FC084B09491860200011F0F6FF3F
:1028100070BDC046740100207C010020B41B002064
:10282000E41B0020DEB4010078010020CCB40100DC
:10283000F7B5A622214B224C99685200914207D34A
:102840005968193A19312000FF31FF3A17F07CFF1F
:1028500023681C4A1B021C4D1C4E1B0A934219D1B3
:102860000023278E2386FFF7DFFD1949278687423D
:1028700011D1A28C2369013292B2A2840193A36880
:10288000144900936368280011F0B8FF06F01EFC9D
:102890003060F7BD1049280011F0B0FF342200214C
:1028A000200017F06DFF0D4B23800123A370A3843C
:1028B00006F00CFC3060FFF76FFFEAE7B41B002066
:1028C0007C01002054570100E41B0020740100200B
:1028D0002FB50100F6B4010058B5010054570000AF
:1028E00010B506F0F3FB044B1B68C01A034B98426B
:1028F00001D9FFF751FF10BD78010020DF930400DC
:10290000024A5368013353607047C0467C0100207F
:10291000024A9368013393607047C0467C010020EF
:10292000024AD3680133D3607047C0467C0100205F
:10293000024A1369013313617047C0467C010020CD
:10294000024A9369013393617047C0467C010020BD
:10295000024AD3690133D3617047C0467C0100202D
:10296000024A136A013313627047C0467C0100209B
:10297000034B9A6A002A00D19862D8627047C04619
:102980007C01002010B506F0A1FBFA21044B890060
:102990001B68C01A14F0A0FD024B5B69C01810BD83
:1029A000740100207C010020004870477C01002059
:1029B00010B506211A2006F075FA01211A2006F03A
:1029C0007FFA054C20000AF0AFF820000AF074F9F5
:1029D00020000AF0FBF810BD400A002010B50021CD
:1029E0001A2006F06DFA012006F068FB10BD000009
:1029F00010B5FFF7F3FF8022044C002120005201A4
:102A00000AF024F920000AF0E1F810BD400A002085
:102A100010B5FFF7E3FF054C00212000044A0AF03F
:102A200015F920000AF0D2F810BDC046400A002077
:102A30001000100010B5FFF7D1FF8022044C0021D8
:102A4000200052030AF002F920000AF0BFF810BD7E
:102A5000400A002010B5FFF7C1FF8022094C002179
:102A6000920120000AF0F2F820000AF0AFF83220BC
:102A700006F024FB20000AF01FF920000AF0A6F857
:102A800010BDC046400A002010B5FFF7A7FF134C49
:102A90002022002120000AF0D9F820000AF096F840
:102AA000642006F00BFB20000AF006F920000AF073
:102AB0008DF8642006F002FB2022002120000AF09D
:102AC000C5F820000AF082F8642006F0F7FA20002A
:102AD0000AF0F2F820000AF079F810BD400A002050
:102AE00010B5064C20000AF0E7F820000AF06EF856
:102AF00001211A2006F0E4F910BDC046400A00206A
:102B000010B580220400002117F03AFE0023803423
:102B1000237010BD0200030010B580321C688C4287
:102B20000BD004339342F9D11A78940021501F211D
:102B3000012001320A401A7010BD0020FCE770B578
:102B4000E0256D002A000021040017F019FE002383
:102B5000635570BDF7B59446E0225200855C0200D3
:102B60001C3A040000271600FAB2954238D91C20FE
:102B70007A1C5043305C884230D11C2662467E432A
:102B8000A5196A80052207212B71AA564A43D2183B
:102B9000D3170B409B18DB106B7100232B7606F0CC
:102BA00095FAAB79A860FF2B01D00133AB71089D7A
:102BB000002D11D02B780025AB420DD01C235F4394
:102BC000E7193B7BAB4207D130000C300B22089950
:102BD000201817F079FFFD752800FEBD1700C3E728
:102BE000102D30D01C26754365192B716B71624610
:102BF00001230027AB7129706A802F7606F066FAF0
:102C0000A860E025089B6D00BB4215D01B78BB4235
:102C100012D0605D0B2270430C300899201817F019
:102C200053FF635D5E43A619F775E0225200A35C73
:102C30000133A3540125CFE71C23625D53430022D7
:102C4000E3181A73F1E7200001220027A568243059
:102C50000668AE4201D2350017000132D2B21C30F4
:102C6000102AF5D11C2632007A43A5182B716B71FE
:102C70000023019262462B760133AB7129706A8082
:102C800006F024FA089BA860002B0CD01B78002BC0
:102C900009D001980B220C300899201817F014FF66
:102CA0000023EB75C6E700237E43A4192373C1E715
:102CB000E0235B00C05C7047E0225200825C0300AE
:102CC00000208A4202D91C304843181870478022DD
:102CD0000023D200802183540200C900F832411839
:102CE000437083700370013013711360D380FF3021
:102CF0000132FF328842F3D17047F8B58023DB0000
:102D0000C35C04000E00032B13D9802700257F002D
:102D1000611CFF31601949193A0017F015FDC023F5
:102D20000135FF359B009D42F2D103220133FF3371
:102D3000E2548023DB00E05C3100421CE25480223C
:102D400000022018520017F0FFFC0120F8BDF8B572
:102D500080250400ED00625D0800131E17D080225C
:102D600021008026520017F0EFFC00277600625DFC
:102D7000013A974209DA3802013739023200201845
:102D8000611817F0E1FCFFB2F1E70123625518006A
:102D9000F8BD8023DB00C05C704700000122014BBE
:102DA0001A707047E0040020F7B5482014F0DBF8F3
:102DB000272304000025262223210093083306F050
:102DC000E5F92100794806F005FE794C52230722E7
:102DD0000121200009F023FF2000764A764914F0F3
:102DE000B3F8764B764A84331D70764B76481D6077
:102DF0005D601D72DD601D61744B2900DA60012287
:102E00001D601A825D609D60714BC5610362456201
:102E10008562C5620563456385631B3217F0B0FCAC
:102E2000FB232F006B4C9B006B4E2560E55430005C
:102E300006220021013517F0A3FCB7603773F78134
:102E4000377477741436322DF1D100273D00634E6C
:102E5000300006220021013717F092FCB571B560F1
:102E600035731036102FF3D10F225D495D4817F0EE
:102E70002BFE5D4B0F22E5545C495D4817F024FEA4
:102E80005C4BA522E5541133E554103BE5505A4BF9
:102E90000521E5500433E550584BD200E550584B1E
:102EA0005848E5503C23A350574A2026A1500432ED
:102EB000A550564AA821A5500432A550544AC9002D
:102EC000A3501E2262505349655004316550524947
:102ED0006550043163506421504BE1500433E55098
:102EE0004F4B5049E550504BE5500433E5504F4BA4
:102EF000E5500433E1504E4B0021E5544D4BE25276
:102F0000E02202331201E2524B4B1822E55417F033
:102F100037FC0C220021494817F032FCB022002176
:102F20009200474817F02CFC4649474817F0ACFD83
:102F30004649474817F0A8FD464C4748631CDD77D3
:102F400008F0DAFE20001B4A444913F0FDFFB823C5
:102F5000434F9B00FD5000254033424CFF1820009A
:102F600032000021403817F00BFC20003200002115
:102F7000203817F005FC20001022002117F000FC7B
:102F80002561A582A575E57525765C34A742E6D155
:102F9000354C200008F0B0FE344809F0ADFA2000AE
:102FA000044A334913F0D0FFF7BDC046540A00204D
:102FB000400A0020B80000200BCB00002C090020A4
:102FC000E09304006C15002020150020BC010020B7
:102FD00060EA0000B80A0020BC0A0020A80E002009
:102FE000EAB50100A80F0020FF040000F3B50100BE
:102FF000B80F00200F050000140500001C0500009C
:1030000024050000181000202C05000034050000E5
:103010003C050000440500004C050000540500007C
:103020005C050000010801FF840500008C0500001C
:1030300094050000960500009A050000301000205D
:1030400040120020F9B501000015002027D501002D
:10305000101500200C0700203007002089300000E8
:10306000F801002038020020F0070020B0080020FE
:103070007530000010B50400C03009F023FA2000BC
:1030800008F0DEFD200010BD10B50400243008F06B
:10309000D7FD200010BD020020320378002B04D1A0
:1030A00001309042F9D1180070470120FCE7000080
:1030B000F7B5027803000191101E2FD000272D2AAA
:1030C00001D10133013700240A201A781100303968
:1030D000CDB2092D03D8444301330C19F5E700267E
:1030E0002E2A11D15D1C0F48073300932B78303BFB
:1030F000DAB2092A08D843430A21F61814F076FAFE
:10310000009B01359D42F1D1074B5C43A619012478
:10311000002F04D101206643019B1E60FEBD644266
:10312000F8E7C046A086010040420F0010B512F03B
:10313000B9FF4022014B1A6010BDC04680E200E09A
:103140000EB430B59AB01DAB040004CB00680193F7
:10315000002812D0A588E1884019491B17F01AFEF3
:10316000031E05DDA088C018E388984200DAA0801D
:103170001AB030BC08BC03B01847602102A817F091
:1031800009FE02A9014811F06FFBF1E7E41B0020E2
:1031900070B5037804000B7042780D0002264A7067
:1031A000002A05D08819E11C17F0CEFA667802369D
:1031B000A278002A07D02100A819433117F0C4FAD9
:1031C000A378F618B6B2300070BD000010B505F057
:1031D0007DFFFA21890014F07FF9034902000348BA
:1031E00011F00CFB10BDC046FFB50100E41B002030
:1031F000F8B504000D001700012A02D8002630009F
:10320000F8BD0B7803704A784270402AF6D8961CB5
:10321000BE42F3DC0221002A04D06918033017F003
:1032200093FAB1B27B1A9BB21A1CB42B00D9B42208
:1032300092B20126A270B942E1D020006918433051
:1032400017F082FADBE70023020003808370F83274
:10325000FE301360137103807047000013B5002423
:10326000019405F0DFFC019B584048400190132079
:1032700005F0F4FEA040019B043458400190012069
:1032800005F01CFF202CF2D105F020FF019B042249
:10329000584001900023024801A908F0D1FF13BD56
:1032A000141B00200F4B70B5038002230E4D83705A
:1032B000AA680333FF3304009A420FD36E680100FB
:1032C00080368422300017F031FA002806D001231E
:1032D0008422210030002B7317F036FA280009F001
:1032E00013FD70BD434D0000B41B002030B5040039
:1032F000174D8BB0280008F081FF2800250002A997
:103300004335202209F02AF82800E11C02AA09F01E
:10331000E0FD2200453212782B7801922200200035
:10332000443212781021009263300A4A12F06CFC89
:10333000230000218222200073331A707C306167E1
:10334000A1677A3A17F01CFA01200BB030BDC046D5
:10335000141B002004B6010073B50400FFF77EFFC4
:1033600082221E4B52009968914205D35968200071
:103370008031803A17F0E8F9022322880193A3787C
:10338000174E00933000174B174911F037FA236896
:10339000164A1B021B0A934216D01549300011F041
:1033A0002DFA2000FFF7A2FF051E14D02000FFF722
:1033B00079FF1049002800D10F49300011F01EFAA2
:1033C00001238434237006E0012530000B49843446
:1033D00011F014FA2570280076BDC046B41B0020F9
:1033E000E41B0020434D000014B60100434D0200D1
:1033F00056B60100AFB60100D3B601008CB601008D
:1034000010B5037A0400002B0AD005F05FFEFA2104
:1034100063688900C01A14F05FF82368C01810BDF3
:1034200005F054FEFA21890014F056F8F7E7000081
:10343000F7B50D003C21040014F0D4F820002971E8
:103440003C2114F049F83C21040014F0CBF8200092
:10345000E9703C2114F040F81821040014F0C2F87F
:103460002000A970182114F037F82C4B2C49C618ED
:10347000300014F0B7F80F002A49380014F02CF887
:103480002949C419380014F027F82849241A3800AB
:1034900014F022F86E21241A2000FF3114F01CF8D9
:1034A0001F4900903000C82614F016F876004643F5
:1034B000009B20001E49F61814F00EF81A49C7198F
:1034C000200014F009F83F1A6E20009BFF3058438B
:1034D0003B1A1C0005277C430234992120000093ED
:1034E00013F0FAFF01909920009B390001330093FB
:1034F000019B5843023013F0EFFF009B181A0D4B4D
:10350000287003209C4200D9F430019BC018C0B23F
:103510006870022800D80136EE80F7BD6CFA0A0008
:10352000B13A0200AC8E0000B4050000B03A0200CF
:10353000948E0000F90500000268F0B513000C003D
:10354000417C733305001B7885B0002949D01021D8
:103550001E000E400B4230D0576F966F3B126370C7
:103560003B14A3703B0EE370331263713314A371E9
:10357000330E380027702671E371314914F01CF9BD
:10358000CA178B18534038002D49039314F02EF8B6
:103590002B490700300014F00FF9CB17C918594018
:1035A00030000191264914F021F83A000090039B65
:1035B0002449254811F022F908262F68633738007E
:1035C00017F06AFAC5B26B1E02000E2B06D8A019BE
:1035D0003900D2B217F0B8F87619F6B2300005B05B
:1035E000F0BD2370036801261A0073321278D206E8
:1035F00010D55A6F9B6F11126270A1701114120EC8
:1036000022711A126371A2711A141B0EE170E27119
:10361000237208362D682B0073331B787F2BDDD97E
:103620006335280017F038FAC7B27B1E02000E2B54
:10363000D4D8A0192900D2B217F086F8F619CCE731
:1036400040420F00FCB60100E41B0020F0B5036807
:1036500006000C0015001F009FB0002B4FD08433D4
:103660001F78002F4BD00800FFF7EDFD0322102339
:1036700015401D43002320002570637031681D3202
:103680004331433017F060F8706800283AD0FFF7F4
:10369000B7FE2300020A633318705A70020C000E42
:1036A0009A70D87005A930000393FFF745FF33687F
:1036B00005001E004336202231000DA8029317F0AA
:1036C00043F80422039915A817F03EF82A0005A92B
:1036D00016A817F039F82A002000029B2432033381
:1036E00092B2673000930DA933000AF087FA2000E8
:1036F0002A00A73005A9643517F026F8A570380010
:103700001FB0F0BD05F0E2FCFA21890013F0E4FEE1
:10371000BFE70000F0B506000F001500140085B0EB
:10372000002A6CD00024642969D9202221002800B5
:1037300017F026F832003900337864322B70029289
:103740006439127889B2019151B200936A70A14232
:1037500000DB71E00F211140042900D96CE0881EC4
:10376000444260410139687748424141A9771021BC
:103770000A401100481E8141A9700121297364315A
:10378000002A28D06C2F26D9320030006C321278F3
:103790006930413A392A35D83200683211780278D6
:1037A000023812020A4331006A31097800780904AC
:1037B0000A4331006B3109780004090611433200D5
:1037C0006632127812020243300065300078A96038
:1037D0006C2102436A6028000D30B94200D388E0B2
:1037E0007F1AFBB21F1C0F2B00D90F27FFB23A0024
:1037F000711816F0A9FF0023ED196B730124200046
:1038000005B0F0BD34004178027809021143827896
:10381000653412041143C278607812060A43217895
:1038200000020843A17809040843E178AA60090668
:10383000014369606D21CEE764229446B444019A45
:10384000A24254DD102C52D06246125D413A192A30
:103850001DD8211D621C03910199914211DD614621
:10386000895C2023080098434138192805D90800AD
:103870003038092801D92D2909D1039B01329342FF
:10388000EAD1072C05DC2100643189B229E001343A
:10389000D5E701223100AA70029B653109781A78B8
:1038A00009021143320066321278120411433200C9
:1038B0006732127812060A4331006A6032006931B9
:1038C0000978683212780902114332006A3212789C
:1038D0001204114332006B32127812060A436C2133
:1038E000AA6081226A70803AAA772A7373E76421FA
:1038F000F7E71021009B024A12F086F97EE7C046E6
:103900002CB7010070B5062104001B2005F0CAFA8F
:1039100000211B2005F0D4FA642005F0CFFB132012
:1039200005F09CFB012105001B2005F0BBFA0020DF
:103930001D4B1968814209D01C4BA8B21B881C4D35
:103940001BB2C01A684313F051FE80B219232080C5
:10395000A37005F0BBFBFA21890013F0BDFD636A7B
:103960006060002B01D01B68A360A36A002B01D00C
:103970001B68E360E36A002B01D01B682361236BA3
:10398000002B01D01B686361636B002B02D0002207
:103990009B5E2383A36B002B02D01B785BB2A376C4
:1039A00005F094FBE06170BDD01E0020D61E002003
:1039B000204E0000036842689B188B420BD9438954
:1039C000028901339BB243819A4207D2C368013313
:1039D000C360002070470123016043810369013304
:1039E00003610120F6E7FE2302009B00C3180020BC
:1039F00010321178002901D00130C0B214329A423D
:103A0000F7D1704710B5094B0400C35C0120002BAF
:103A10000BD005F05BFBFA21890013F05DFDA723B5
:103A2000DB000100E018FFF7C5FF10BD92050000A4
:103A300070B5C4888588E61C03000020AE4218DA01
:103A400064304243601CD88018680155D9881C68CE
:103A5000481CD88002206054D8881C68411CD9803A
:103A600011B209122154D98818684C1CDC804254C8
:103A7000012070BD70B5202504002A00002116F039
:103A80007FFE2A006019002116F07AFE2000102225
:103A90000021403016F074FE00232365636558341E
:103AA000237070BDF0B585B00C1E009041D00B782E
:103AB000002B45D0080016F0EFFF0026009D019076
:103AC00040352B7E002B2FD02B78002B2CD05C2365
:103AD00073432800029316F0DFFF0200002003006A
:103AE0000199521A0392019A934225D241277F42AB
:103AF000BC46EA18115CE25C8C446746192F01D879
:103B00002031C9B241277F42BC4694446746192FF1
:103B100001D82032D2B201339142E4D0039B01306C
:103B2000834201D30023DEE701365C35082EC8D17D
:103B30000024200005B0F0BD029A009B9446634427
:103B40001C00F6E7002313B5019312F0F2F8104BB6
:103B500004001A6801231A4205D003210D4A01937B
:103B600013688B4313600C4B0C4A1B889BB2136089
:103B700004230B4A11680B43136030BF019B002BD9
:103B800002D0062012F0B8FC200012F0D6F813BDC7
:103B900000002F402800034052F2FF0F04000340B2
:103BA00010ED00E010B5040012F0C3F8044A054916
:103BB0001368A4050B402343136012F0BEF810BD38
:103BC00004E400E0FFFF3FFF10B54024044B1C60FD
:103BD000044B98650320FFF7E5FF034B1C6010BD05
:103BE00080E100E00000002000E100E010B50400EA
:103BF00012F040FA054812F04BFA002C04D00448A9
:103C0000FFF7E2FF12F056FA10BDC046FFFF0000BA
:103C10002D31000013B50D4C012221780C4806F01F
:103C20000DFAFFF7D3FA23780A4A002B00D10A4A8B
:103C30000A4B1978074B002900D1074B084909485E
:103C400009780091084910F0D9FD13BD76100020C5
:103C5000540A00209ACA010050B80100BC0000209C
:103C6000C4000020E41B002036B7010010B500217D
:103C7000212005F017F9FFF765FF10F029FF034B2E
:103C800001211860212005F00DF910BDC419002094
:103C900010B504000021212005F004F9200005F0F2
:103CA0000DFA0121212005F0FDF810BD10B504F03A
:103CB000B9FF4140080C4840CC210002000A090627
:103CC000084310BD522373B5094C0A4D2360263BAF
:103CD000094E2B60094B3360FFF778FA33680849C7
:103CE00000932B682268074810F088FD73BDC0461A
:103CF000C8000020D0000020C0000020F70800000D
:103D00004EB70100E41B002010B53C2800DD3C202C
:103D100003B2503301DA044B188850300E2180B2C0
:103D200013F064FCC0B210BD6AB7010010B50721E2
:103D30000400002010F0CCFA6043400010BD0000E9
:103D400010B5104806F056FA1423040000201C4257
:103D500012D005F0BBF90C4A1368002B02D1106099
:103D6000012009E00949C31A096849008B4204D9B6
:103D7000E10602D40020106010BD054909688B429D
:103D8000EED9F7E7540A0020B0010020C800002057
:103D9000C0000020044B1B78002B02D0034B186896
:103DA00070470348FCE7C0466815002064150020F2
:103DB0008D675944044B1B78002B02D0034B1868C5
:103DC00070470348FCE7C046681500205C150020DA
:103DD00000007A42034B08201B78002B01D0024BD5
:103DE000187870476815002069150020034B0820DB
:103DF0001B78002B01D0024B187870476815002003
:103E000060150020F7B50400FFF7D4FF071CFFF78B
:103E1000E1FF0500FFF7EAFF144E15490190381C39
:103E200014F0F8F913F08EFDAE400100300013F0ED
:103E300053FB512747436400641B0B340600BF0843
:103E40000820A400002C08DDA9006418601E13F0EF
:103E5000CDFB019B434318000830FA2170438900D1
:103E6000C01913F039FB0130FEBDC04640420F00BF
:103E700000007A44F0B58BB0FFF78CFF051CFFF70C
:103E800099FF0790FFF7A6FF0890FFF7AFFF099093
:103E9000FFF79CF93C4B3D4A1B78002B00D13C4A74
:103EA0003C4C3D49200010F0A9FC002305933B4BFE
:103EB0003B4F049310230393023B0293043301937B
:103EC000099B38000093079A089B291C05F090FD78
:103ED000344E306000280CD0FFF778F920003268AB
:103EE000FA24314910F08AFCA400200005F0E6F81D
:103EF000FBE701230221009338002C4B2C4A07F0EA
:103F0000B3FB3060002806D0FFF760F9200032686C
:103F1000284910F073FC3800274905F0A8FFFFF787
:103F200079FE2649281C14F075F913F00BFD24497D
:103F30000600079814F06EF913F004FD0500FFF772
:103F400045F9FA213000890013F04CFB0F00FA21EB
:103F50003000890013F0C0FA099B06000393089B08
:103F600028000A21029313F03DFB280001910A2149
:103F700013F0B2FA3B00009032002000114910F01B
:103F80003DFC0BB0F0BDC046681500206CB70100C9
:103F900027D50100E41B002071B70100CDCCCC3F38
:103FA000540A0020AC0A002085B70100211000004F
:103FB0000F1D000099B701009D2D000000007A44FC
:103FC00000002041AFB7010070B5194C194D23789E
:103FD0002A680133DBB2013223702A60042B10D926
:103FE000FFF7F4F81449154810F008FC01211448B3
:103FF00005F0B2FE642005F061F8FFF73BFF0023F7
:1040000023702B68092B11D9FFF7E0F80D490B48F5
:1040100010F0F4FB642005F051F8BFF34F8F0A4B0A
:104020000A4ADA60BFF34F8FC046FDE770BDC04655
:10403000B00A0020E4040020D3B70100E41B0020F4
:10404000540A0020F0B7010000ED00E00400FA057A
:10405000030030B5104A00781D0050401A005C780B
:104060000935E418A2420DD100229C784233D1B226
:104070008C420FD90132112A0CD041010818995CE9
:104080004840F4E70132AA42EED041010818917885
:104090004840E7E730BDC046A5B5020070B5032330
:1040A0000278022115001340023B04000D40DBB2F0
:1040B0000A4201D0012B3BD82100FE310020095ECD
:1040C000783135DB012B08D86378002B30D0194BC1
:1040D000E17843331B7899422AD10F239208134089
:1040E000072B02D00E231A420AD1A378002B07D047
:1040F0002200104B4332433312781B789A4217D078
:104100002000FFF7A5FF01000B48FEF703FD002884
:104110000ED0002D0DD163783E2B09D8054AE31847
:10412000433212789C4204D0E17801349142F9D1B3
:10413000002070BD2C090020B4090020F0B5837860
:1041400005000024C3B0052B00D8B9E003000F22FE
:1041500043331B789343802B00D0B1E003004433FA
:104160001F787B0700D4ABE0020045325378167805
:104170001B023343967836043343D67836061E4303
:1041800004F0A4FF504B01949C461A68002A00D109
:1041900088E04E49821A8A4200D983E00134E4B2B1
:1041A000019A043301320192042AEED1032C00D982
:1041B0007FE0002361469A008958002975D1444B5D
:1041C0009B18A222D2009850FFF700F8414C3A0009
:1041D0004149200010F012FB02A8FFF734F8032237
:1041E0002B781A402C23134302AA13706F78130004
:1041F0005770002F04D03A00E91CD81C16F0A4FA1E
:10420000432302AA9B1881221A7013AB7F3A1A70BB
:104210004523FC352D7802AA9B186DB21D704623EC
:104220009B181E70472302A9320A5B181A70320CC1
:1042300014AB1A7049234A205B18360E1E7002AB6D
:1042400026490822C01816F07FFA38000F2302AA68
:1042500011309370FFF7D6FD06002800FFF754FDDC
:10426000031C0A2800D90A23FA211D4ADBB25B008D
:10427000985A8900704313F02FF905003000FFF7BA
:1042800055FD2D18FEF7A2FF2A001649200010F058
:10429000B5FA280004F012FF134802A9FEF72DFD1D
:1042A00001240DE000221A607AE70133042B81D14A
:1042B0008AE7FEF78BFF0D49064810F09FFA0024AD
:1042C000200043B0F0BDC046C80F0020BFD401009D
:1042D000B80A0020E41B00201BB801006F09002071
:1042E00068CA01002AB801008415002008B801003E
:1042F00070B505001400002914DB0B008268083338
:1043000093420FD8436808225E183000210016F04F
:104310000DFA002806D001230822210030002B735B
:1043200016F012FA200070BD70B5050014000029C7
:1043300014DB0B008268583393420FD8436858222D
:104340005E183000210016F0F1F9002806D0012394
:104350005822210030002B7316F0F6F9200070BDB2
:10436000AA2170B504000C4D020049002800FFF797
:10437000BFFF2200AE21280008324900FFF7D4FF1A
:104380002200DA21280060324900FFF7CDFF280023
:1043900008F0BAFC70BDC046B41B0020B02270B556
:1043A000520004000021B83016F0EAF9AE231E4D89
:1043B0005B00AA689A4206D369680822553120003A
:1043C000FF3116F0C1F926002368184A1B0208368F
:1043D0001B0A934219D1DA23AA685B009A4206D3DA
:1043E000696858225D313000FF3116F0ADF9832342
:1043F000AA689B009A4207D3200069685822B53109
:104400006030FF3116F0A0F970BD2000002104C01B
:10441000042216F0B5F9B0220021300016F0B0F9F0
:104420002000FFF79DFFEFE7B41B00200FBB01004A
:10443000582359430A0070B5094D08325D31040014
:104440008218FF312800FFF76FFFAA212200280001
:104450004900FFF74DFF280008F056FC70BDC0462C
:10446000B41B002037B5184C200005F06BFB00236F
:10447000164A1370164A1360164B64221B68002BF1
:1044800002D005335B009AB2022310210093200072
:10449000114B07F061F8114D286000280FD0FEF78E
:1044A00095FE2A680E490F4810F0A8F90121200056
:1044B00005F052FC642004F001FEFFF7DBFC012252
:1044C000094B1A7037BDC046540A0020E004002092
:1044D000B0010020C800002076020000AC0A0020D5
:1044E0003BB80100E41B0020EC040020F0B5574A63
:1044F00085B001230292E1210022554C5B420093DA
:10450000490201922000534A0FF0E6FDFA20800094
:1045100004F0D4FD504A5149200010F06FF9FEF725
:1045200025F8FEF785F94E48FFF738FF0120FFF721
:104530005DFBFEF74BFE20004A4910F05FF94A4D43
:104540002B68002B02D1FFF7B1FB2860FEF73EFE7F
:104550002A684649200010F051F9FEF737FE200086
:10456000434910F04BF9434E3000FEF7F5FE0028AA
:1045700064D0FEF72BFE3300433320001B783E4A05
:104580003E4910F03BF93E4B3E4A00255A603E4AF8
:104590001E60DA6001221A749D60FEF717FE9623F2
:1045A0003A4A3B495B00200010F028F939483A4B61
:1045B00043623A4B83623A4BC3623A4B03633A4BD2
:1045C00043633A4B8363FFF79DF9394F3E6004F034
:1045D0007DFD384BF850B823374F9B00FE505C26CA
:1045E0003000684301353818FFF744FA082DF7D139
:1045F000FEF7DEF93148FEF783FA3148FEF767FB34
:104600003048FEF79CFAFFF735FCFFF75BFBFFF73E
:1046100001FBFFF727FF04F059FD2B4B1860FEF755
:10462000D5FD2A49200010F0E9F8FEF7CFFD7822E9
:104630002000274910F0E2F805B0F0BDFEF7C6FDF6
:104640002000244910F0DAF89DE7C046204E000013
:10465000E41B0020220800004CB8010052B8010001
:10466000F404002071B80100280900207EB8010080
:1046700093B801002C0900208F090020A1B8010087
:10468000BC0100206C150020E093040031C1010042
:10469000C8B80100201500207810002080150020E7
:1046A000E8040020E4040020EE040020F0040020D0
:1046B000B80A002084050000F8010020B409002099
:1046C000841500207C100020F4010020DBB80100DC
:1046D000E7B80100B4B80100F0B58278437806006D
:1046E0009B1880220233C5B05200934208D9FEF7CE
:1046F0006DFD4E494E4810F081F8002045B0F0BDE8
:1047000004A9FEF745FD041EF1D04A494A4B307812
:104710005A5801325A500431820700D547490027C0
:104720005A58474D01325A50280005F00BFA454BB4
:104730001F70FEF76DF9FEF749FD032132783C4802
:1047400093060A40B1781B0F0191717800913E49A0
:1047500010F054F83B002200280004A906F0C0FD28
:104760003A4E3B4B30601F70B84209D0FEF72EFD29
:10477000326838492E4810F041F8FEF7B1F9BCE72D
:1047800004F0A4FC0700344B1E6864362D4B1B78E4
:10479000002B0AD104F09AFCC01BB04205D2FEF7F0
:1047A000C5FC012004F08AFCF0E7280005F022FD9A
:1047B000012307001F4018422AD0284AB126136857
:1047C000FA2701331360FEF7A3F82000FFF71AFB66
:1047D000194DF600AB59BF00C418AC51BC420DD303
:1047E0003900200012F078FE1D4B3900EA581018ED
:1047F000E8502000039212F0F5FEA951FEF7E6FC06
:1048000018490B480FF0FAFFFEF76AF9012075E727
:10481000FEF7DCFC144906480FF0F0FFFEF760F9E4
:10482000124A380013680133136067E7F6B80100D5
:10483000E41B002064050000B80A00206C0500009D
:10484000540A0020E00400200CB90100AC0A00204A
:10485000EC04002025B90100C000002080150020D4
:104860007C05000035B9010045B90100E4040020D1
:1048700010B5C2B002A8FEF7E6FC1E4B4B201A682A
:104880001D4C110C130E4B405340110A4B4069460E
:10489000CB720A23FF330B812388B42101339BB2EF
:1048A000238068440092154A11F0AEF96B46987265
:1048B000FEF78CFC2288124C124920000FF09EFF5C
:1048C00002A8FFF7C5FB01000F48FEF723F902A875
:1048D000FFF702FF002809D0FEF778FC0B49200003
:1048E0000FF08CFFFFF7BEFD42B010BDFEF76EFC6F
:1048F0000749F4E7280900208819002056B901006B
:10490000E41B00206AB90100B409002074B9010059
:1049100080B9010030B5C3B0040002A8FEF793FCD3
:10492000244B694643331A786B46DA720A23FF3305
:104930000B814B2169440C7013A90A704D2244214C
:104940006A4411704E224F201B4D6A442B880C3153
:1049500011700133194A9BB22B8060310092684478
:10496000174A11F051F96B4604309872FEF72EFC8D
:104970002B88144D2200144928000FF03FFF02A895
:10498000FFF766FB01001148FEF7C4F802A8FFF725
:10499000A3FE002809D0FEF719FC0D4928000FF0EE
:1049A0002DFFFFF75FFD43B030BDFEF70FFC094957
:1049B000F4E7C0462C090020881900208F09002048
:1049C0008EB90100E41B002095B90100B409002054
:1049D00074B9010080B9010030B5C3B0040002A869
:1049E000FEF731FC244B694643331A786B46DA7282
:1049F0000A23FF330B814B2169440C7013A90A7001
:104A00004D2244216A4411704E224F201B4D6A44AE
:104A10002B88103111700133194A9BB22B805C3105
:104A200000926844174A11F0EFF86B460430987210
:104A3000FEF7CCFB2B88144D2200144928000FF000
:104A4000DDFE02A8FFF704FB01001148FEF762F843
:104A500002A8FFF741FE002809D0FEF7B7FB0D4979
:104A600028000FF0CBFEFFF7FDFC43B030BDFEF792
:104A7000ADFB0949F4E7C0462C0900208819002045
:104A80008F0900208EB90100E41B0020A7B90100A6
:104A9000B409002074B9010080B9010070B5264B3B
:104AA000050084331B78254CC0B0002B07D1FEF7DE
:104AB0008DFB234920000FF0A1FE40B070BD012204
:104AC000204E002800D1022269463000FEF7BEFDCC
:104AD000002803D1FEF77AFB1B49EBE7FEF776FBD4
:104AE0001A4A002D00D11A4A1A4B1B4920000FF018
:104AF00085FE6846FFF7ACFA01001848FEF70AF891
:104B00006846FFF7E9FD00280FD0FEF75FFB144968
:104B100020000FF073FE04F0D9FA124AB060136857
:104B200001331360FFF79EFCC7E7FEF74FFB200041
:104B30000D490FF063FEF5E72C090020E41B00206F
:104B4000BFB90100BC010020CBB90100B9B9010017
:104B500051BF01008F090020E0B90100B409002015
:104B6000ECB90100B8010020F8B90100F0B50C0063
:104B700091B0C7490500160015F07CFF002818D138
:104B8000C44B43331D7804F0A1FAFA21890012F0D6
:104B9000A3FCC14B1A7AC14B002A00D1C04B02932F
:104BA000C04AC14BC149019000952000FEF7C8FAE8
:104BB00025E02800BE4915F05DFF002823D1BD4B3C
:104BC000BD481D68BD4B1E68BD4B1B680993BD4B9E
:104BD0001B680A93BC4B1B680B93BC4B1F68FEF70A
:104BE000D8F80B9B049002930A9B2A000193099B1F
:104BF00020000093B64933000397FEF7A1FA01267F
:104C0000300011B0F0BD2800B24915F033FF002884
:104C100010D1A148067A002E07D0FEF7F1FB020062
:104C2000AD492000FEF78CFAEAE7AC492000FEF718
:104C300087FAE4E72800AA4915F01CFF071E20D1D7
:104C4000A84D2800FEF75EFE2E88A74B64259E42E5
:104C500009D8A64B3D009E4205D9A54B0921F01865
:104C600012F0C4FCC5B204F031FAFA21890012F046
:104C700033FC2B0032009F4900902000FEF760FAC1
:104C8000BDE728009C4915F0F5FE071E63D19B483F
:104C9000FEF70EF89A4902000A902000FEF750FA3B
:104CA0003E000A9B9E42AAD031009448FEF704F8C9
:104CB000051E37D02368002B04D0E388A288303B40
:104CC0009A429CDA04F002FAFA21AB688900C01A11
:104CD00012F002FC09907048037A002B25D0FEF7F1
:104CE0008FFB099B0EAF3900C01AFEF7A1FB297B91
:104CF0002A78844B002901D02B000C33F9780691D7
:104D0000B97805917978049139780391A97902915C
:104D10000421695601910220295E200000917A4900
:104D2000FEF70EFA0136F6B2BBE7297B2A78754BFF
:104D3000002901D02B000C3309990391A979029124
:104D40000421695601910220295E200000916F49DB
:104D5000FEF7F6F9E6E728006D4915F08BFE00280E
:104D600005D028006B4915F085FE002846D16A4819
:104D7000FEF739FE6949020009902000FEF7E0F9CC
:104D80002668002E00D03AE7099B9E4200D136E704
:104D90000023634A1F001500117D002929D09E427F
:104DA00025D104F093F91423FA215F43ED192B79EF
:104DB00089000A93EB686F79C01A12F08DFB1023FB
:104DC0000690EB56200005931222AB5E55490493E2
:104DD0006B7A0A9A03932B7A0293EB790193AB795E
:104DE00000933B00FEF7ACF90136F6B2CCE7013395
:104DF000DBB201371432322FCED1F5E728004A4911
:104E000015F038FE071E00D09EE0224D20002B003A
:104E100043331B78244A4549FEF792F92B0073333C
:104E20001B78DB0621D56E6F4149300012F0C4FCBF
:104E3000CA178B18534030003D49099312F0D6FB36
:104E4000AD6F06003A49280012F0B6FCCB17C9181E
:104E5000594001912800364912F0C8FB32000090F9
:104E6000099B20003349FEF76BF92368002B00D023
:104E7000C5E620003049FEF763F9304B2000DA5DCB
:104E80002F490137FEF75CF9202FF6D12D49CDE6E9
:104E900027BA01002C0900206C15002008BA010077
:104EA00006BA01004CB801008F0900202EBA01009B
:104EB000C3C4010078100020841500208015002054
:104EC000E8040020E4040020B8010020B401002020
:104ED0004BBA01009FBC010079BA010085BA0100FC
:104EE0008FBA01002015002067100000E40C0000BC
:104EF0001CF3FFFF99BA0100B2BA01007C10002038
:104F0000B8BA010079D50100C2BA0100EFBA0100B8
:104F10000DBB010018BB0100BC0A002022BB010030
:104F2000B80A00202ABB01005DBB010066BB01007E
:104F300040420F006FBB010088BB01006F090020D9
:104F40008CBB010026D5010028009E4915F092FD7A
:104F5000002829D19C4B1A0073321278D20621D531
:104F60005D6F9A4928009F6F12F026FCCB17CE1870
:104F7000280096495E4012F039FB9449050038003C
:104F800012F01AFCCB17C9185940019138008F490B
:104F900012F02CFB33002A008D4900902000FEF710
:104FA000CFF82CE68B4941E628008B4915F062FDCD
:104FB00000280ED1B222894BD200995C884A002980
:104FC00000D1884A88495B5C88492000FEF7B8F820
:104FD00015E62800864915F04DFD071E18D1FA2167
:104FE000844E8900F06812F077FA050004F06EF83C
:104FF000B268F1683B00861A8E4206D25218FA2136
:10500000101A890012F068FA03002A007A49DCE7D6
:1050100028007A4915F02EFD00282CD1AF226F4DC3
:10502000774BD200E856AA5E764B7749EB560140A3
:1050300004D50426013976423143013149B2CE17F5
:10504000891971401926C9B27143163E0191C117E1
:105050003140081880106D4900902000FEF770F86C
:10506000B0236B4ADB002000EB58AA586949FEF7D1
:1050700067F8023EC4E52800674915F0FBFC0028EC
:1050800018D1564A654BAC21D358C9000393644BE1
:105090002000D3580293AD23DB00D3580193AE23F5
:1050A000DB00D35800935F4BD35852585E49FEF74C
:1050B00047F8A4E528005D4915F0DCFC002846D13E
:1050C0000E230493063B03930293033B019339336E
:1050D00000932000564B574A5749FEF731F8574B7B
:1050E0001E78002E00D18AE5554B5649186813F0FA
:1050F00091F812F027FC544B07005449186813F03C
:1051000089F812F01FFCFA2105008900380012F01E
:1051100069FA0991FA213800890012F0DDF94C4B47
:1051200007001B78280003934A4B0A211B7802933F
:1051300012F058FA280001910A2112F0CDF93A0034
:105140000090099B20004449FDF7FAFF58E528002C
:10515000424915F08FFC00280FD1FDF725FC050012
:10516000868CFDF70FFCEA6803000292AA683C49AE
:1051700001926A680092320017E52800394915F05B
:1051800079FC071E00D011E1374E3D003000FDF7DD
:105190008FFD099003F09AFF0A90099B9D4267D00A
:1051A00029003000FDF788FD002807D00A9A83689F
:1051B000D31A2E4A934201D90137FFB20135EDB21D
:1051C000EBE7C04691BB01002C09002040420F00D4
:1051D00073BB01009ABB0100A2BB0100B80A00200A
:1051E00031C101004EC1010091050000A9BB0100C1
:1051F000B9BB0100BC010020C9BB0100DDBB01003F
:105200007B0500007A05000003000080E8BB010078
:105210007C05000009BC010022BC01006C050000F7
:1052200074050000640500002EBC010029C60100C1
:105230006A0200006503000053BC010068150020ED
:105240006415002000007A445C1500200000204115
:10525000601500206915002078BC01009BBC01008E
:10526000A4BC0100CCBC01007C10002040771B00D6
:10527000BF4D2800FEF746FBFA210A98890012F07C
:105280002BF92D88BB4B060064209D4209D8BA4BF0
:1052900000209D4205D9B94B0921E81812F0A6F962
:1052A000C0B2B74B1A7AB74B002A00D1B64B3200C6
:1052B000B649019300902B002000FDF741FFB44A4E
:1052C000099B1178DB1BB34A002900D1B24A2000A8
:1052D000B24901920097099AFDF732FFB04BB02115
:1052E000DA780023AF484900C55C002D01D00132B7
:1052F000D2B258338B42F7D1AB21AB4BC9001B68FC
:1053000020000393A94B002659580291A8495958E7
:105310000191A621C9005B58A64900930623FDF719
:105320000FFF099B9E4200D169E42368002B05D042
:10533000E388A288283B9A4200DB60E431009E4863
:10534000FDF7BAFC051E14D00A9B8268981A9B4B85
:10535000984211D99A4912F0BFF8297B2A78994BC3
:10536000002901D02B000C33974900902000FDF755
:10537000E7FE0136F6B2D4E7052004212856695627
:10538000431A5BB2172BF4DD2B7B2A789C466746C9
:105390008C4B002F01D02B000C330325081AC117AA
:1053A00029400918891000918849DFE728008849B9
:1053B00015F060FB00284FD1794FB023FD78794E6E
:1053C0002A005B00315C002901D00132D2B2583092
:1053D0009842F7D100210B00705C002801D0013306
:1053E000DBB2B020583140008142F5D1019320005A
:1053F000062378490095FDF7A3FE0026F5B2012E9D
:1054000023D858253B0075430833ED182B7A002B21
:1054100016D000235A48027A9A4203D0FDF7F0FFD3
:105420006B68C31A4522012E00D90D3202932B7AE4
:10543000200001932B78684900933300FDF780FE2C
:105440000136062EDAD1FFF7DAFB5823023DEDB222
:105450005D43B8357D19D9E72800604915F00AFB8E
:10546000002811D15E4B1A785E4B1978494B002900
:1054700000D1494B5C4908784649002800D146498B
:1054800000915A49FFF7F9FB2800594915F0F2FA43
:1054900000280FD13E4B3F4D1B78002B00D13E4DD5
:1054A0005448FDF7F8FD544B002800D1534B2A0017
:1054B00053498AE52800534915F0DCFA002812D137
:1054C000514A3A4B995C334A002900D1324AAB2108
:1054D000C90059580191364959580091A621C9006F
:1054E0005B584A495AE52800494915F0C3FA002893
:1054F0000BD13D4B274A1B78002B00D1264A45494A
:105500002000FDF71DFEFFF77AFB2800424915F049
:10551000B1FA002807D1334B1E4A1B78002B00D16B
:105520001D4A3E49ECE728003D4915F0A3FA002842
:1055300000D07FE0002103223A4B5956CB1713408D
:10554000394A5B180020125E38489B10014004D590
:105550000420013940420143013149B2C8170918FA
:1055600041401920C9B2414300913149FFF785FB01
:105570002015002067100000E40C00001CF3FFFF62
:105580006C15002008BA01000DBA0100D3BC01005F
:10559000F001002031C101004EC10100F0BC01004A
:1055A000F4040020B4050020E4040020B80A002020
:1055B000440500000BBD01007C10002040771B005B
:1055C00060EA000079D501002CBD01003FBD01005B
:1055D00052BD01005ABD010070BD010059BE01005D
:1055E000C400002076100020BC00002085BD010012
:1055F00058C50100D001002025C0010010BA0100EB
:1056000098BD0100AABD010092050000B4BD0100D3
:10561000CDBD0100D3BD0100DDBD0100E5BD010030
:10562000EDBD0100F0040020EE0400200300008026
:10563000F2BD01002800CE4915F01CFA002819D14E
:10564000B423CC4A9B00D25CCB4B002A00D1CB4B7D
:105650000021B0200A00CA4D80006E5C002E01D0EF
:105660000132D2B258318142F7D10092C549C64ABF
:10567000FFF703FB2800C54915F0FCF9002816D1F7
:10568000C349C44BCA5CFF2A0ED0B325ED00C24B00
:10569000C2484D5DCB5C085AC149002D00D1C149BB
:1056A00001910090C04979E4C049FFF7BFFA280092
:1056B000BF4915F0DFF9021E0FD13221B44B187D1E
:1056C000002804D0587D012801D10132D2B201391D
:1056D00014330029F3D1B74912E72800B64915F071
:1056E000C9F900280DD1AA4BB449B54A595C9A565C
:1056F000B44B002900D1B44B0093B4490E23FFF7FB
:10570000BCFA002E01D1FFF77BFA2800B04915F052
:10571000B1F900280AD1B22301219D4ADB00D154FE
:10572000AC492000FDF70CFDFFF76AFA2800AA49F2
:1057300015F0A0F9002806D1B2230021944ADB001D
:10574000D154A649EDE70E222800A54915F0ABF982
:10575000002810D128000E3014F095FFC3B25A1E55
:105760000E2A01D9FFF74BFA89499E4A8B549E496C
:10577000C2B2FFF756FA052228009C4915F093F9AA
:10578000071E20D16B79002B1BD00535280015F0A2
:1057900083F90F2815D80F222900954815F094F9A0
:1057A00094480300020072331F7080237332117813
:1057B0005B420B431370FDF775FD2A008E49FFF71E
:1057C00030FA8E49ADE728008D4915F053F90028CD
:1057D00003D1874A8B49FFF724FA28008A4915F03C
:1057E00049F9031E0CD1834810210200436773322C
:1057F000836713788B431370FDF754FD834990E75B
:1058000009222800824915F04EF9099000285BD141
:1058100009352021280015F01FF9071E52D0099BD9
:105820000DA903702800FDF743FC002848D0781C20
:105830000EA9FDF73DFC002842D0764A0D9B991831
:10584000754A91423CD874490E9A5018734988425F
:1058500036D868481025010043678267733109789C
:1058600013430A00AA43002B01D02A000A43030075
:1058700073331A70FDF716FD0D9F6949380011F05A
:105880009BFFCA178B18534038006549099311F0E4
:10589000ADFE0E9D07006249280011F08DFFCB1769
:1058A000C9185940019128005D4911F09FFE3A0046
:1058B000099B5C4900902000FDF742FCFFF7A0F92E
:1058C00059492EE759492CE759491022280015F06B
:1058D000EAF8011E14D128000A22103015F022FA2D
:1058E0000100544B3C390200994207D8FA239B002F
:1058F00043435149CB605149FFF793F9504910E7B1
:105900002800504915F0B6F8002804D10130FFF7FF
:10591000C5F84D4905E728004C4915F0ABF80028BB
:1059200003D1FFF7BBF84A49FBE62800494915F0C7
:10593000A1F8002803D1FEF79BFF4749F1E60522B5
:105940002800464915F0AFF8002800D08CE0681D0B
:105950001022002115F0E6F90500C0B2002805D09C
:10596000FEF7D8FF3E49EAB2FFF75BF93D49D8E6BA
:1059700009BE0100401200201015002015BA0100D8
:10598000951200200DBE01000015002025BE01006B
:10599000B80A002093050000940500009605000059
:1059A0001BBA010022BA01002BBE010042BE010059
:1059B0004DBE010050BE010057BE01009A05000017
:1059C0009905000031C101004EC101005FBE010018
:1059D00079BE010087BE01008FBE01009EBE01009E
:1059E000A7BE010091050000B0BB0100B6BE0100DA
:1059F0008F0900202C090020BCBE0100C5BE01009B
:105A0000CDBE0100D2BE0100DBBE0100EABE010036
:105A1000F3BE0100804A5D050095BA0A002A75159B
:105A200040420F0073BB0100FDBE010007BF010033
:105A300012BF010044510100BC01002023BF01003E
:105A40002DBF010039BF010040BF01004ABF010066
:105A500057BF010062BF010067BF010072BF0100B4
:105A600078BF010084BF0100CB490622280015F051
:105A70001AF8011E0ED1A81D102215F053F90500C9
:105A8000C0B2002800D171E7FEF7A6FFC349EAB211
:105A9000FFF7C7F82800C24914F0ECFF002808D12E
:105AA0000122C04B1A70FEF7B5F8FCF7DBFCBE49CB
:105AB00037E62800BD4914F0DDFF002807D1B94BB7
:105AC0001870FEF7A7F8FCF7CDFCB94929E62800C5
:105AD000B84914F0CFFF002806D10122B64B1A7046
