:100000000040002011000000FD040000FD0400007D
:1000100010B501F039F900F035FC00F08FFA00005E
:1000200070B572B699221C4B1C4D1A601C4B953A48
:100030001A601C4B7C321A601B4B763A1A601B4AC2
:100040001B4B18201A6002221A4B00241A6012233C
:100050002B6001F071F8F022174B12011A60174A59
:10006000174B18491A604022174B0D201C60174B84
:100070001A6000F095FF0D2000F0BEFF144B200029
:100080001C6001F009F9112303222B60114B1A6047
:10009000114B1D321A6070BD000302403000104049
:1000A0000000044008000440000304403104000044
:1000B00008030440180304400003014040FF00808F
:1000C0000000014025130000280003400401014006
:1000D0000C02224030003040000E3F400000000083
:1000E0000000000000000000000000000000000010
:1000F0000000000000000000000000000000000000
:1001000010B5064C2378002B07D1054B002B02D0ED
:10011000044800E000BF0123237010BD4801002007
:1001200000000000FC1F0000084B10B5002B03D09E
:100130000749084800E000BF07480368002B00D1CA
:1001400010BD064B002BFBD09847F9E700000000DC
:100150004C010020FC1F0000B8000020000000003F
:1001600010B5054C200001F04FF820686368010BC2
:10017000000589B2184310BDAC010020F8B5FFF7A7
:10018000EFFF00250C0422002B00801859412B00A2
:10019000220C801A99410B04040C1C43584B594DF6
:1001A000E118594B0A091A40584B09011940584B9C
:1001B0000A43D21893082B40564D92002A4013430D
:1001C000554AAC46554E9B18554D5A085B00324077
:1001D0002B401343534A54499B18544A1F0A1B028D
:1001E0000F4013403B4307013A00F027504D3F03B7
:1001F0002B60504B174023401F434F4B4B4AFF1877
:100200003B0A3F0217400B404C4A3B439B183D4A78
:100210009F08DB43174062469B0013401F43484B37
:10022000394AFF18FB431B091340384A3F01174066
:10023000444A3B439B183A4A5F085B0037401340EF
:100240003B436B60F02307041B053B403E4F374A9E
:1002500027403B43F02707401F433C4B0002FF1859
:10026000FB433F021B0A17400B40394A3B439B1894
:100270001F09DB43244A1B011740244A13401F4334
:10028000344B204AFF18FF43BB0813406246BF00AF
:100290001740314A3B439B18214A5F085B003740B7
:1002A00013403B43AB602D4B1C40F0231B01184017
:1002B0000443E0436400400814400640284B2643B2
:1002C000F6183309F643104A360113400F4A164018
:1002D0001E43244B154AF618F34336021B0A1940F5
:1002E0003240214B0A43D218D243064993080B40AF
:1002F000614692000A401A431C4BD218EA60F8BDCE
:1003000059C9947F333333330F0F0F0FF0F0F0F0F0
:100310004E384E0ACCCCCCCCDC84235755555555A1
:10032000AAAAAAAA247BDCA8FF00FF0000FF00FF06
:10033000B4010020FFFFF0FF41BD4B3946F6AC3F52
:10034000DAE94D414299797E0FFFFFF02DB1F6B207
:10035000B2C3ED1B731F94F5DBAEE973FFF0FFFF33
:1003600038E47C2339DEC7D99A0FEC4100C1C62896
:100370000023F0B585B06946114A9A1812785A548C
:100380000133102BF7D1009B1FBA019B1EBA029BB1
:100390001DBA039B1CBAFFF7F1FE0A4B00201A6836
:1003A00097420AD15A68964207D19A68954204D179
:1003B000D868001B4342434158B2C0B205B0F0BDFB
:1003C000F0F7FF0FB401002010B590B040220B49A8
:1003D000684601F0D7F9002318006C4608495A42D4
:1003E00059180978A25C914201D00130C0B2013B9A
:1003F0001A004032F1D110B010BDC04600200000FC
:10040000FF27000010B50A2000F022FE094800F086
:1004100065F80A2000F01CFE8022074B52001A608B
:10042000064A074B1A604022064B1A6000F076FC21
:1004300010BDC046402000000003014041FF008085
:1004400000000140B000002010B500F0D1F800F02D
:10045000D1FF002811D1063000F0B4FF012000F0D8
:10046000BDFF00F0C7FF002803D100F0ABFFFFF78E
:10047000C9FF002000F0A6FF14E000F0DBFF002819
:1004800010D1063000F0BEFF012000F0C7FF00F0E1
:10049000D1FF002803D100F0B5FFFFF7B3FF002024
:1004A00000F0B0FFFFF764FF002805D0642000F0E3
:1004B000CFFD00F033FC08E0FFF786FF002801D1F4
:1004C00000F02CFC044800F009F8642000F0C0FDA6
:1004D00000F09CF8FEE7C046532000000FB400B5C2
:1004E000B5B036AA02CA02A8019201F075F902A8B5
:1004F00000F036F935B008BC04B0184710B501F06B
:1005000015F903680C2B00D1FEE7FEE7030010B5D8
:1005100080240849084A08686401C3189A1AA2424C
:1005200001DC0B6005E001F001F90C230360012000
:10053000404210BDBC00002018020020F8B5002584
:100540000F49104B01394A1C14D000221F685C6807
:100550009E68A018B24203D0B858A0500432F8E701
:100560000200DE68141AA64201D020C2FAE7103356
:100570000139E8E701F0E0F8FFF766FFFEE7C04663
:10058000010000001C210000002370B50B480C4C3A
:100590000C4D9A002100032B00D8A958013381503B
:1005A0002C2BF6D1FFF73CFD074B1A68002A00D12F
:1005B0001A608022054B92051A6070BD0000002071
:1005C000FD04000000000000B000002008ED00E085
:1005D0008021064A10B5136809060B4313600820F2
:1005E00000F00AFD00F096F810BDC046000025405E
:1005F00010B5054C2378002B03D100F01DF8012322
:100600002370FFF7E5FF10BD6401002010B508203E
:1006100000F0FCFC00F090F8054A082013685B002D
:100620005B0813600022034B1A6000F0F9FC10BD58
:1006300000002540880F254070B5002407210425BF
:100640001C4A1D4B08201A601C4B1D4A1C601D4B88
:100650001A601D4B1D4A13601D4A11601D4A063960
:1006600014601D4A11601D4A13601D4B1C601D4B18
:100670001D6000F0CBFC0321082000F09DFC1A490E
:10068000082000F08DFC194B1C60194B1C60194BA5
:100690001C60194B1C60194B1D60194B1C601A68BB
:1006A000184B1A80184B1C60184B1C60184B1C70A0
:1006B00070BDC0460C0000020000254040002540EF
:1006C00001000A0048002540070000800003254083
:1006D0000403254010032540440025400002254026
:1006E0000402254050002540E9140000880E2540F2
:1006F000C80E2540480F2540080F2540C80F25404B
:10070000880F25406C010020C8010020C401002092
:10071000CC010020F021054A13688B4360390B435C
:100720001360034B1A88034B1A60704700030240A2
:100730006C010020880F2540F021064A13688B4386
:100740001360054B1A68E423DB001340034A13804F
:100750007047C04600030240880F25406C0100200E
:1007600010B504000134631E1878002802D000F090
:10077000A1FEF7E710BD004770B506000D0014009C
:10078000002802D0002000F055FC00207519002C34
:1007900005D0013C2B191B78C018C0B2F7E770BD1B
:1007A000FF23020070B59A43C0B01300541C6A4680
:1007B000FF34D51A1E78EE540133A342FAD1C3B2E6
:1007C000D45C8C4205D0000AD15480B2110000F0F4
:1007D0003BFB40B070BD0000013810B50B2830D88D
:1007E0000902494200F002FF06080A0C0E1014121A
:1007F00016191B20174B13E0174B16E0174B0AE096
:10080000174B12E0174B0BE0174B09E0174B02E0B8
:10081000174B00E0174BC91817E0174B05E0174BB3
:10082000C9180878C0B214E0154BC9180A7848787E
:100830008C780002230418430300C8781343000691
:1008400006E0002000F0F6FB00210B78487800025B
:10085000184310BDC0FF0100C1FF0100C5FF01002A
:10086000C9FF0100D0FF0100D1FF0100D6FF010048
:10087000D2FF0100D4FF0100D8FF0100DCFF01001E
:10088000E0FF01000C4B10B51A68102313400B4A0F
:1008900000D113601368802B0DD1002402202100A9
:1008A0001460FFF799FFA04205D021000220FFF756
:1008B00093FFFFF760FF10BD54000340B00000201D
:1008C000F8B5010004000320FFF786FF21000600B1
:1008D0000420FFF781FF210007000620FFF77CFFBF
:1008E0000025012828D021000320FFF775FF0136DD
:1008F0003602F7192E0001300002B84209D20378FF
:100900005A1ED2B2FD2A00D80126ED18EDB20130F0
:10091000F3E721000120FFF75FFF6D42EBB20625F0
:10092000834209D1002E07D0044B24026042C01834
:100930000121FFF735FF00252800F8BDD1FF010098
:10094000F0B5C24CA54400F009FE62B6002700973E
:100950000197962103AC46ADFF23220049002800F1
:1009600000F004FE0028F4D12188062900D8AFE168
:100970002A780423012A5CD16E88F21D8A4200D9AC
:1009800086E0962149008A4200D981E0AA1992792D
:10099000172A4ED1F3189BB2002B08D0DCAAAC4921
:1009A000D21852181278013B801880B2F3E7AB19C5
:1009B0005A7940421B79120280B21A4308238242BC
:1009C00037D167E0342B00D0D6E0009B012B00D05C
:1009D0007EE1032E00D07BE180220021520091A80D
:1009E000802700F0D8FE7F00182191ABD819FF3185
:1009F00002ABF21EC91800F0C5FE0423F619FF333E
:100A0000B6B29E4200D01BE116228B21FF3202AB10
:100A10009B18490002AA521810781B78000218434C
:100A20008C4B0700984200D824E1FF3BFF3B00932A
:100A30000933002546A8012143702B0AC370002307
:100A400002AA06320170291D1580857089B200291D
:100A500009D0DCAC7E4E6418A419247801391B1926
:100A60009BB289B2F3E7DCA97B4C49195B420C19B4
:100A70009BB22370794C1B0A0C192370784B0735F5
:100A8000C91817230B70A9B27F3300F0A0FD60E7EF
:100A90000323CEE76B782C79180031380A282ED939
:100AA000704A1568002D26D0009A012A25D106AC7F
:100AB00002AA13725681002147AE0C22200005962F
:100AC00000F069FEA660210004A8A8472623A58897
:100AD000FF339D4202D9A368B34207D0A268002A1F
:100AE00001D1002D04D12368DBB2A3E70E23A0E7D8
:100AF0000E2315009EE705239CE7052399E700F0E8
:100B00007FFD0B001B00CFFF61FF4300CFFF4900BB
:100B10005D0061FF7B009200009B012B00D0D7E0BD
:100B2000002E00D0D4E03000FFF7CAFE434243411C
:100B30002B713300009D7DE7009B012B00D0C7E0A7
:100B4000012E00D0C4E0002C00D0C1E0464B1B6851
:100B50001B685A0CD2B2002A02D1DB03DB0D01E084
:100B600080239B002B711B0A6B71FF23AB71FE3B33
:100B7000EB71002304255DE7009B012B00D0A7E06B
:100B8000022E00D8A4E02FE7009B012B00D09FE0AD
:100B90000027DEE6009B012B00D099E02C33F519ED
:100BA000FF339D4200DD73E791ABD819320047A9AE
:100BB00000F0E8FD0023AFB21D003BE7062E00D099
:100BC00086E02A4A06AB94461000190014C814C1E6
:100BD0006246013EF6B29019A919007A0979884255
:100BE00076D1002EF5D147AA03CB03C201233700EB
:100BF0000093082533001DE7009B012B68D1032ECD
:100C000066D116228B21FF3202AB9B18490002AA43
:100C1000521816781B7836021E430E4B9E4259D945
:100C2000F63BFF3B05E70020FFF74AFE002802D114
:100C300080220F4B1A6000F095FC00F0FDF947E0B0
:100C400001230027009302333D00F3E68CFCFFFFF5
:100C5000A7FDFFFFFF010000ACFDFFFFADFDFFFFA3
:100C6000AEFDFFFF70010020C00000209C200000AE
:100C7000B0000020274B1B681A68130AD2B29BB23F
:100C8000002A01D001339BB26402381984B29C421D
:100C900014D3019B002B0BD180221900520006A80F
:100CA00000F079FD06A91C4800F0CEF8012301935D
:100CB00091A9200000F0C8F8002804D001230027E3
:100CC00000930933C0E70123070000930300BBE74B
:100CD0000423AEE680226102891909025200002035
:100CE000FFF74AFD0500002C0ED10B4B9E420BD1A5
:100CF00021000520FFF770FD21002D1A0620FFF7C7
:100D00006BFDEDB22D1AEDB26D4246AB1D710023A5
:100D100001258FE6C0000020FF01000070B5002013
:100D2000FFF7CEFD431E98410624134D40422B6829
:100D300004401A68C021C03A0020FFF71DFD6B680F
:100D40001B78181AC0B2834203D12B681B68002B92
:100D500002D1002000F06EF9084B19681A004029F2
:100D600001D0002C03D000231360FFF7E9FD80229F
:100D70001A6000F061F970BDC0000020B0000020D2
:100D800082B06A460B4B0C4900930C4B01930C4B01
:100D90001A600C4A1160C0461A68120F0F2A04D05C
:100DA0001A680020120F0A2A01D01868C0B202B0D7
:100DB0007047C046B6E900001600008074010020AC
:100DC0000800104004001040094B0A4A0A491A6002
:100DD0000A4A1160C0461A68120F0F2A04D01A6816
:100DE0000020120F0A2A01D01868C0B27047C0460E
:100DF00008001040B6E80000150000800400104014
:100E000082B06A460B4B0C4900930C4B01930C4B80
:100E10001A600C4A1160C0461A68120F0F2A04D0DB
:100E20001A680020120F0A2A01D01868C0B202B056
:100E30007047C046B6EA0000170000807401002029
:100E40000800104004001040F0B50024304BC7B03B
:100E5000029406000394984255D8A14253D08022B0
:100E600006A8520000F08EFC2A4B2B4D0493FF2362
:100E70002A492B4A04AF7B602F600A60C0462A686B
:100E80000191120F0F2A03D02A68120F0A2A01D0EB
:100E90002C681C400294029B002B36D100F0DDFA36
:100EA0000400FFF76DFF0390039B002B02D1FFF7B7
:100EB0008BFF0290029B002B16D11A4A1A4904920A
:100EC000049A0198360416430496134A2F60016071
:100ED000C0462968090F0F2903D01168090F0A2994
:100EE00001D01368DBB20293039B002B07D1FFF7FD
:100EF00087FF0390039B002B01D0039B02932000EC
:100F000000F0AFFA01E004230293029847B0F0BD6D
:100F1000FF010000B6D70000080010400400104098
:100F200004000080B6D800000500008070B5050000
:100F300000F093FA0400102D04D803210E4A136820
:100F40008B4307E0202D07D803210B4A13688B43FE
:100F500002390B4313600AE0302D05D80321064AFD
:100F600013688B430139F4E7002000F063F8200098
:100F700000F077FA70BDC04630001040024A034BC3
:100F800011680B401360704700002240FFFFFFBF55
:100F9000024B18684000C00F7047C0460000224056
:100FA0001B2800D901BE034B8000C31818681960C4
:100FB0007047C04640000020F8B504000E00032929
:100FC00000D901BE1B2C00D901BE032725003D40DE
:100FD000BD400635AF40AE4000F03FFAA408054BD7
:100FE000A400E4182368BB431E43266000F039FACE
:100FF000F8BDC04600E400E01F2318401E3B8340BC
:10100000014A13607047C04600E100E01F2318400A
:101010001E3B8340014A13607047C04680E100E0F8
:101020001F2318401E3B8340014A13607047C0468F
:1010300080E200E001BE7047034A044913689BB296
:101040000B4313607047C0460CED00E00400FA0546
:1010500070B5802504002D02064BAC4205D95868B6
:1010600000F0F2F9044BE418F6E79868604300F0EA
:10107000EBF970BDC80000200080FFFF37B500F01D
:10108000FDF8002842D000F0E8F91C21204B214A4D
:101090001B6812689B008A400B40920F1833D340A4
:1010A00080251D491D4A04000868ED0110401C4AB6
:1010B0005A435219D20B013A0243192B01D8194B4A
:1010C0000EE0194D19481818EB18A0251A3B0078A6
:1010D0001B786D031B182A43FF2B00D9FF239B05A8
:1010E0001A43134D0A602B6830200193FFF71EFF4F
:1010F0008021104AC905136814200B431360FFF7C1
:10110000A7FF019B20002B6000F0ABF937BDC04664
:10111000080F0340280003400800224000F800C0E8
:1011200040420F000000D43FAA2000004DF3FF0F03
:101130003000104000002240F7B50500183D0400C3
:10114000182D46D80126244B3700EB409F4340D151
:1011500000F083F90190FFF71BFF0097002802D0F1
:10116000FFF70CFF009607271C4E1D4A33681D49E8
:10117000BB4333601C4BE3181B78DBB213601B4A84
:101180001368BB4313601A4B0A68E31818787F236F
:101190009A43034013430B60322000F055F9182C9A
:1011A0000ED033681C3CA408BB433C401C43346055
:1011B000322000F049F93368AD08BB431D43356068
:1011C000009B012B01D1FFF759FF019800F049F96D
:1011D00000E001BEF7BDC04611111101080F034028
:1011E0000C0F0340180F03404DF3FF0F100F034087
:1011F00034F3FF0F10B5034B1B7B584300F024F969
:1012000010BDC046C8000020144B1A78144BD1B250
:1012100001601B781B020B431A000360114B1B7803
:101220001B041343104A0360127812061343036031
:101230000E4B1A780E4BD1B241601B781B020B4348
:101240001A0043600B4B1B781B0413430A4A43608C
:1012500012781206134343607047C04678F2FF0FBE
:1012600079F2FF0F7AF2FF0F7BF2FF0F7CF2FF0F94
:101270007DF2FF0F7EF2FF0F7FF2FF0F014B186828
:10128000C00F704700002240014A024B1A607047AD
:101290006588EDAC3800034070B5154D04002B682F
:1012A000144E9B0F9B07984215D0032233687C2075
:1012B000934333602B689B0F00D09030FFF79AFF69
:1012C00000F0CBF82B68A40F9B009B08A4071C43DD
:1012D0002C6000F0C6F803223368934319002B6892
:1012E0009A0F5342534101330B43336070BDC046E4
:1012F0000C0222401402224010B5040000F0ADF8A8
:101300000549064A0B681440054A134023430B6005
:101310000B6800F0A6F810BD10022240040404007F
:10132000FBFBFBFF042270B5224C2368134213D051
:1013300021490B6813420CD0204B5D6908681540A9
:10134000A84308605969914359619B68002B00D0FC
:1013500098470420FFF7D0FF80232268DB001A4261
:1013600015D015490A681A420DD0144A5569086803
:101370002B40984308605169114B0B405361D3686F
:10138000002B00D098478020C000FFF7B5FF8023D6
:101390002268DB021A420CD0074A12681A4204D0B3
:1013A000064B1B69002B00D098478020C002FFF736
:1013B000A3FF70BD10022240DC0000208C01002041
:1013C000FFFBFFFF034A044B116840020B40184328
:1013D0001060704708030440FFF1FFFF0823044931
:1013E000C0000A689A43D2B2034013430B607047AF
:1013F00000030440024B18680007C00F7047C04646
:1014000004030440034A044B116880010B40184355
:1014100010607047080004403FFEFFFF04230449AA
:1014200080000A689A43D2B2034013430B607047AE
:1014300000000440024B18684007C00F7047C046C8
:1014400004000440000000000230800803D0013096
:101450000238FCD1C046C0467047EFF3108072B628
:10146000704780F310887047084B094A1968136861
:101470000020994208D013680133412B00D10300AA
:101480000449C85C1360C0B27047C046C801002060
:10149000C4010020CD010020044B1868044B1A68D9
:1014A0001B68904200D24130C01A7047C80100202A
:1014B000C40100201F2204490B681340082BFBD0F5
:1014C000024B18607047C046080225404002254084
:1014D00070B504004518AC4204D02078FFF7EAFF4D
:1014E0000134F8E770BD0000134B70B51B68002B8A
:1014F00000D09847114B1B685B071CD520241F2088
:101500000F490B680133412B00D100230D4A1568A8
:101510000D4AAB4203D113680C4B1C7004E01268F7
:101520000B4DD2B2EA540B600A4B1B680342E8D160
:101530000422094B1A6070BD68010020CC0F2540C1
:10154000C8010020C401002040032540CC01002038
:10155000CD01002008032540C00F254010B5FFF73E
:1015600047F810BD10B5FFF751F810BDF8B50400ED
:101570000F0016000120002C28D0002926D00A25B3
:101580005D43FFF789FF002810D0FFF785FF0500B6
:10159000AE20FFF72FFEFFF77FFF8542F5D1390020
:1015A000AF4200D929003180651807E00120013DD4
:1015B000FFF74EFD002DE4D1102007E0AC4204D02F
:1015C000FFF752FF20700134F8E70020F8BD70B536
:1015D00001230C001500002805D0002903D0FFF7D7
:1015E00077FF00232C80180070BD000002B4714604
:1015F00049084900095C49008E4402BC7047C04656
:1016000003B47146490840004900095E49008E4410
:1016100003BC7047002243088B4274D303098B42FA
:101620005FD3030A8B4244D3030B8B4228D3030CB2
:101630008B420DD3FF22090212BA030C8B4202D354
:101640001212090265D0030B8B4219D300E0090A7C
:10165000C30B8B4201D3CB03C01A5241830B8B4285
:1016600001D38B03C01A5241430B8B4201D34B036E
:10167000C01A5241030B8B4201D30B03C01A5241D3
:10168000C30A8B4201D3CB02C01A5241830A8B4258
:1016900001D38B02C01A5241430A8B4201D34B0241
:1016A000C01A5241030A8B4201D30B02C01A5241A5
:1016B000CDD2C3098B4201D3CB01C01A5241830959
:1016C0008B4201D38B01C01A524143098B4201D393
:1016D0004B01C01A524103098B4201D30B01C01ABE
:1016E0005241C3088B4201D3CB00C01A5241830838
:1016F0008B4201D38B00C01A524143088B4201D365
:101700004B00C01A5241411A00D2014652411046C4
:101710007047FFE701B5002000F006F802BDC046A3
:101720000029F7D076E770477047C046014B18682C
:101730007047C046400100200E4B70B500251E00CA
:101740000D4CE41AA410A54204D0AB00F3589847FE
:101750000135F8E700F0D0FC084B00251E00084CCE
:10176000E41AA410A54204D0AB00F3589847013501
:10177000F8E770BD042100000421000004210000EE
:101780000C210000002310B59A4203D0CC5CC45455
:101790000133F9E710BD03008218934202D019709B
:1017A0000133FAE77047000030B59BB00091049117
:1017B00008496D4602910591012182244942E9813F
:1017C000A4006946AC8100F075F80023009A1370FC
:1017D0001BB030BDFFFFFF7F10B513000A000100F2
:1017E00002480068FFF7E0FF10BDC046400100203E
:1017F000F0B58E6885B007000C00039201939E42FD
:1018000043D890238A89DB001A423ED00325096918
:10181000236801985B1A029363695D43EB0F5D19BE
:10182000029B6D1001331B18AB4200D91D005305FC
:1018300010D52900380000F037FB061E14D0029A9C
:101840002169FFF79FFFA289194B134080221343A0
:10185000A38112E02A00380000F086FB061E0CD19E
:101860002169380000F0D4FA0C23402201203B60AB
:10187000A38940421343A38117E0029B2661F61817
:1018800026606561019EED1AA560019BB34200D2FE
:101890001E0032000399206800F0A5FA0020A3681A
:1018A0009B1BA36023689E19266005B0F0BDC0464F
:1018B0007FFBFFFFF0B59FB0029005938B890F006F
:1018C00016001B0610D50B69002B0DD1402100F02E
:1018D000EBFA38603861002804D10C23029A0138F1
:1018E0001360D8E040237B61002306AD6B61203399
:1018F0006B761033AB7634002378002B03D1A31B17
:10190000049312D003E0252BF9D00134F4E7A31B94
:10191000320039000298FFF76BFF431C00D1B4E09E
:101920006A69049B944663446B612378002B00D161
:10193000ABE00122002352426A6002A954325218DD
:1019400001342B60EB60AB601370AB65534E2178B4
:101950000522300000F03CFA002807D00123801B4C
:1019600083402A68013413432B60EFE72B68DA06C3
:1019700004D55322202102A8121811701A0704D589
:1019800053222B2102A81218117022782A2A03D080
:10199000099B00200A210EE0059A111D126805918D
:1019A000002A01DB099204E05242EA60022213435A
:1019B0002B6001340BE02278303A092A04D84B43DB
:1019C00001349B180120F6E7002800D00993237802
:1019D0002E2B1ED163782A2B0AD1059B02341A1DA7
:1019E0001B680592002B01DA01235B42079310E08C
:1019F00000230A201A0001346B602178303909294C
:101A000004D84243013452180123F6E7002B00D0DA
:101A10000792234E21780322300000F0D9F90028E4
:101A200006D04023801B83402A68013413432B6077
:101A3000217806221B48661C297600F0C9F9002887
:101A400012D0194B002B06D10722059B0733934375
:101A50000833059314E005AB00933A00134B2900BB
:101A6000029800E000BF07E005AB00933A000F4B7F
:101A70002900029800F08AF80390039B013304D0F8
:101A80006B69039A9B186B6135E7BB890B985B0602
:101A900001D5012040421FB0F0BDC046C320000068
:101AA000C9200000CD20000000000000F117000058
:101AB000F7B5170001938A680B6900900C009342F8
:101AC00000DA130022003B6043321278002A01D072
:101AD00001333B6023689B0602D53B6802333B60C1
:101AE000062523681D401ED0230043331B785A1E51
:101AF0009341226892061CD53020E11843310870CA
:101B000021005A1C45310978A21843320233117062
:101B10000FE022000123193201990098089EB04776
:101B2000431C0ED00135E3683A689B1A9D42F0DBF6
:101B3000DAE72200019943320098089DA847431C28
:101B400002D10120404220E006232068E1683A6883
:101B500003400025042B03D18D1AEB43DB171D40F6
:101B6000A3682269934201DD9B1AED180027BD424C
:101B70000AD0220001231A3201990098089EB0472A
:101B8000431CDED00137F2E70020FEBDF0B58BB07C
:101B900006920A0043320793059004920A7E0C00D5
:101BA000109B6E2A00D1ABE011D8632A22D009D84D
:101BB000002A00D1B5E0582A00D0C5E045310A70AE
:101BC000814A4FE0642A1DD0692A1BD0BCE0732AE9
:101BD00000D1AAE009D86F2A29D0702A00D0B3E03A
:101BE000202209680A43226037E0752A1FD0782A2C
:101BF00033D0A9E00E001A684236111D196013682F
:101C00003370A4E021681A68080606D4490604D592
:101C1000111D19600023D55E02E0111D19601568C1
:101C2000002D3BDA2D23049A6D42137036E02168B3
:101C30001A68080606D4490604D51568111D1960EE
:101C4000ADB202E0111D196015685F4B227E03934F
:101C500008276F2A1DD00A271BE022007821453271
:101C600011705A4A19680392081D226818600D689D
:101C7000100602D4500600D5ADB2D30702D52023FA
:101C80001A4322601027002D03D1202322689A4393
:101C900022602300002243331A7002E00A274A4BD5
:101CA00003936368A360002B09DB0422216891433E
:101CB0002160002D05D1049E002B11D07BE0002D6A
:101CC00079D0049E28003900FFF72AFD039B013ECE
:101CD0005B5C280033703900FFF79CFC051EF1D1D6
:101CE000082F09D12368DB0706D563682269934270
:101CF00002DC3023013E3370049B9B1B23612BE0ED
:101D000009681A68080607D4490605D5111D196027
:101D10001368A28A1A8004E0111D196013686269B1
:101D20001A600023049E236116E01A68111D1960D1
:101D3000166800216268300000F04AF8002801D0DF
:101D4000801B6060636803E0260042363270012326
:101D500023610023049A1370079B09AA00932100B2
:101D6000069B0598FFF7A4FE431C02D101204042C8
:101D700027E02369320006990598079DA847431C70
:101D8000F4D0236800259B070FD4099BE068984294
:101D900017DA180015E02200012319320699059878
:101DA000079EB047431CE1D00135E368099A9B1AAE
:101DB0009D42F0DBE9E72600039B42361B78337037
:101DC0008EE70BB0F0BDC046D4200000E520000037
:101DD000C9B28218904204D003788B4202D00130FD
:101DE000F8E70020704710B5884202D98B18984256
:101DF00001D3002305E09B1A013A08D3995C815472
:101E0000FAE7934203D0CC5CC4540133F9E710BD28
:101E100070B50500002944D00C1F2368002B00DAA0
:101E2000E418280000F0D8F81E4A13681100002BAF
:101E300002D16360146031E0A3420DD92268A0187A
:101E4000834203D118685B688218226063600C606B
:101E500024E0A24203D813005A68002AF9D11E6870
:101E60009819A0420BD12168711858181960824244
:101E700014D110685268411819605A600EE0A042EF
:101E800002D90C232B6009E021686018824203D13B
:101E9000106852684118216062605C60280000F0A0
:101EA0009CF870BDA8010020032370B5CD1C9D4394
:101EB000083506000C2D01D20C2501E0002D01DBB8
:101EC000A94202D90C23336048E0300000F084F8C6
:101ED000234B1C681A002100002913D00B685B1BE0
:101EE0000DD40B2B02D90B60CC181EE08C4202D112
:101EF000636813601AE04B6863600C0016E00C0026
:101F00004968E9E7174C2368002B03D1300000F043
:101F100051F820602900300000F04CF8431C18D024
:101F20000323C41C9C43A0420DD12560300000F067
:101F300054F8200007220B30231D9043C31A0ED003
:101F40005A42E2500BE0211A300000F033F8431CF3
:101F5000EBD10C233000336000F03FF8002070BD5F
:101F6000A8010020A4010020F8B506000C0015000F
:101F7000002904D11100FFF797FF040018E0002AA0
:101F800003D1FFF745FF2C0012E000F027F885424F
:101F90000ED929003000FFF787FF071E07D0210068
:101FA0002A00FFF7EFFB21003000FFF731FF3C0074
:101FB0002000F8BD002370B5064C05000800236022
:101FC000FEF7A4FA431C03D12368002B00D02B603A
:101FD00070BDC04610020020704770470B1F1A6882
:101FE000101F002A04DA891804390B68D018043845
:101FF00070470000002200002A00000000000000DE
:10200000F7FF7018B2C0300154144A1378184B10FF
:102010003C57F905F00038200020D80E2B053B6115
:102020000023E023FDC2F7FF7018B2C03001541541
:102030004A1D78184B1AF917F0000020D80C2D090A
:10204000626F6F746C6F6164657220737461727417
:102050000D0A0054686520626F6172642069732004
:102060006E6F74206163746976617465642C20708E
:102070006C6561736520616374697661746520695C
:102080007420776974682074686520616374697668
:10209000652E63796163640D0A000000B5116A253D
:1020A000003C0101D91F5DC38D2AEEDBC9B9AA9B93
:1020B0008E82766B60564D443B332C241D17100ADC
:1020C000044300232D302B2000686C4C00656667AC
:1020D000454647003031323334353637383941429E
:1020E0004344454600303132333435363738396170
:1020F0006263646566000000F8B5C046F8BC08BCC1
:102100009E4670472901000089050000F8B5C046C9
:10211000F8BC08BC9E467047010100003021000059
:10212000B800002090000000D00000000000000077
:102130000000000018020020F41F0000F81F00003B
:10214000010000000000E02EC05D0000180000004B
:1021500000366E01040404000000000000000000CE
:10216000000000000000000000000000000000006F
:102170000000000000000000C1200000000000007E
:10218000000000000000000000000000000000004F
:10219000000000000000000000000000000000003F
:1021A000000000000000000000000000000000002F
:1021B0000000000000000000E0000020000000001F
:1021C000000000000000000000000000000000000F
:1021D00000000000000000000000000000000000FF
:1021E00000000000000000000000000000000000EF
:1021F00000000000000000000000000000000000DF
:102200000040002011220000F1550100F1550100AD
:1022100080B5044B00AF83F3088813F009FC13F07A
:102220000DFAC0460040002070B572B60024414B44
:10223000414A1C60414BC7211A60414B414A1C6016
:10224000414B49001C60414B20251C600523136055
:102250003F4A11603F4A136012223F4B1A6013F04D
:10226000CFFB302013F020FFE8223C4B52011A60D4
:102270003B493C4B3C481960C021890001603B4808
:1022800018603B4801603B493B4819603B490A6084
:102290003B491960F821490101603A4818603A4801
:1022A00004603A4818603A4802603A4A0D201A60C1
:1022B000394A1160394A3A491A604522394B1D6042
:1022C000394B1A60394B033A1A60394B013A1A609C
:1022D000384B06321A60384B013A1A60374B033AD2
:1022E0001A60374B01321A60364B043A1A6013F009
:1022F00015FE0D2013F03EFE8020334BC0051C6000
:1023000013F0B8FB0322314B01201A608022304BBE
:1023100012061A6008222F4B1A602F4B1D6006F020
:10232000B7F862B613F064FF2C49042013F090FF55
:1023300070BDC04600030240FF0F000000040240D1
:102340000803044000040440180304400003044050
:1023500008040440180404403000104014030140F5
:1023600045FF0080000001400803014042FF00805B
:102370000403014041FF0080100301400C030140B1
:1023800043FF008044FF00800003014040FF0080C5
:102390001803014046FF00801C03014047FF0080F6
:1023A0006D5D0100280003404801014030010140FB
:1023B0002C010140100101400C01014008010140C5
:1023C00004010140000101400C0222403000304075
:1023D00000003A4000033A40000E3F408184000074
:1023E00010B5064C2378002B07D1054B002B02D0EB
:1023F000044800E000BF0123237010BD58010020F5
:1024000000000000DCAD0100044B10B5002B03D030
:102410000349044800E000BF10BDC04600000000B2
:102420005C010020DCAD0100F0B5002301250A4865
:102430000A4C0B4E08211A5D5040421028400700FC
:1024400090B2002F01D0724090B201390029F4D12E
:102450000133342BEED1F0BDFFFF00007C010020E2
:1024600001A0FFFF70B59CB06A4604252F4B961D56
:1024700013802F4B2F491B789570D3702E4B300053
:102480001B78002413712D4B1B7853710F2217F00A
:10249000F3FF16206B460F22294968445C7517F03C
:1024A000EBFF284B29201A786B460733DA77264B47
:1024B00026491A7802ABDA77254B68441A780AABBA
:1024C0001A702022F47717F017FE224B4A201A7850
:1024D00049236B441A7020492022684417F00CFEEF
:1024E0006A2021002A00684417F022FE1B4CA368D2
:1024F0006D2B0ED965686E226946280017F0EEFD37
:10250000002806D001236E2269462800237317F0A5
:10251000F3FD20000AF0BEF81149031E114800D156
:10252000114911F043FE1CB070BDC0463CCCFFFF0A
:10253000C4000020F81400206E100020BC00002011
:10254000081500206C100020CC0000204C1000204A
:102550006D100020F0010020D0010020AC1B0020F5
:10256000E8AD0100DC1B0020FEAD01008021F0B5CC
:10257000474C9DB0200089000AF06BF8A3686D2BD2
:1025800004D96E226846616817F0B6FD6B46414A71
:102590001D88414C4149424B4248434F954248D1E6
:1025A0006A469278042A44D16A46D278002522707D
:1025B0006A4612790A706A4652791A706B460F227F
:1025C000991D17F059FF1621384C0F2269443848DD
:1025D000E55517F051FF374B2921E5546B4607337A
:1025E000DD7F354B69441D7002ABDA7F334B3448D5
:1025F0001A700AAB1A78334B1A70202217F07CFD40
:1026000049234A216B441C782F4B20222F486944D0
:102610001C7017F071FD2E4A002D00D12D4A2C4B55
:10262000002C00D12B4B2C492C4811F0BFFD1DB0C4
:10263000F0BD012222700024294D1A700C700E3258
:10264000A91D17F019FF2900184E0F22163118483E
:10265000F45517F011FF0822164B2100F454164BC5
:1026600017481C70154B1A70164B18321C7017F057
:102670005FFD154B2022210014481C7017F058FDF7
:102680001849164811F092FDFFF7ECFECFE7C0465F
:10269000AC1B00203CCC0000C40000206E100020C9
:1026A000BC000020F8140020CF02000038120020E7
:1026B00008150020DF0200006C100020CC00002074
:1026C0004C1000206D100020F0010020D0010020EF
:1026D000D2B80100E5B8010018AE0100DC1B0020F3
:1026E0002CAF01003BAE0100012370B50024194A54
:1026F000194D1370194AA91D1470194A19481370FD
:102700000F2217F0B9FE2900174E184B0F22163171
:102710001748F45417F0B0FE08222025154B21006D
:10272000F454154B15481C70154B1A70154B2A00A4
:102730001C7017F0FDFC144B2A00210013481C707C
:1027400017F0F6FCFFF78EFE1149124811F02EFD2E
:1027500070BDC046C40000202CAF01006E100020E8
:10276000BC000020F814002038120020CF02000026
:1027700008150020DF0200006C1000204C10002023
:10278000CC0000206D100020F0010020D0010020BE
:102790005CAE0100DC1B002070B506F05DF9FA218B
:1027A0001C4D89002B681C4CC01A14F06DFB63692A
:1027B000C018606106F050F9002328602386FFF7F7
:1027C00033FEA623154D2086AA685B009A4210D3DB
:1027D0006E6834221936FF362100300017F07EFC77
:1027E000002806D001233422210030002B7317F07B
:1027F00083FC280009F04EFF094C0A49002804D048
:1028000006F02AF9084B09491860200011F0CEFCA7
:1028100070BDC046740100207C010020AC1B00206C
:10282000DC1B00208EAE0100780100207CAE010090
:10283000F7B5A622214B224C99685200914207D34A
:102840005968193A19312000FF31FF3A17F054FC4A
:1028500023681C4A1B021C4D1C4E1B0A934219D1B3
:102860000023278E2386FFF7DFFD1949278687423D
:1028700011D1A28C2369013292B2A2840193A36880
:10288000144900936368280011F090FC06F0E4F806
:102890003060F7BD1049280011F088FC3422002177
:1028A000200017F045FC0D4B23800123A370A38467
:1028B00006F0D2F83060FFF76FFFEAE7AC1B0020AC
:1028C0007C01002054570100DC1B00207401002013
:1028D000DFAE0100A6AE010008AF010054570000B2
:1028E00010B506F0B9F8044B1B68C01A034B9842A8
:1028F00001D9FFF751FF10BD78010020DF930400DC
:10290000024A5368013353607047C0467C0100207F
:10291000024A9368013393607047C0467C010020EF
:10292000024AD3680133D3607047C0467C0100205F
:10293000024A1369013313617047C0467C010020CD
:10294000024A9369013393617047C0467C010020BD
:10295000024AD3690133D3617047C0467C0100202D
:10296000024A136A013313627047C0467C0100209B
:10297000034B9A6A002A00D19862D8627047C04619
:102980007C01002010B506F067F8FA21044B89009D
:102990001B68C01A14F078FA024B5B69C01810BDAE
:1029A000740100207C010020004870477C01002059
:1029B00010B506211A2005F03BFF01211A2005F071
:1029C00045FF054C200009F075FD200009F03AFE96
:1029D000200009F0C1FD10BD400A002010B5002103
:1029E0001A2005F033FF012006F02EF810BD00007C
:1029F00010B5FFF7F3FF8022044C002120005201A4
:102A000009F0EAFD200009F0A7FD10BD400A0020F2
:102A100010B5FFF7E3FF054C00212000044A09F040
:102A2000DBFD200009F098FD10BDC046400A0020E3
:102A30001000100010B5FFF7D1FF8022044C0021D8
:102A40002000520309F0C8FD200009F085FD10BDEB
:102A5000400A002010B5FFF7C1FF8022094C002179
:102A60009201200009F0B8FD200009F075FD322028
:102A700005F0EAFF200009F0E5FD200009F06CFDFB
:102A800010BDC046400A002010B5FFF7A7FF134C49
:102A900020220021200009F09FFD200009F05CFDAC
:102AA000642005F0D1FF200009F0CCFD200009F0E2
:102AB00053FD642005F0C8FF20220021200009F00A
:102AC0008BFD200009F048FD642005F0BDFF2000CB
:102AD00009F0B8FD200009F03FFD10BD400A0020BC
:102AE00010B5064C200009F0ADFD200009F034FDC2
:102AF00001211A2005F0AAFE10BDC046400A0020A0
:102B000010B580220400002117F012FB002380344E
:102B1000237010BD0200030010B580321C688C4287
:102B20000BD004339342F9D11A78940021501F211D
:102B3000012001320A401A7010BD0020FCE770B578
:102B4000E0256D002A000021040017F0F1FA0023AF
:102B5000635570BDF7B59446E0225200855C0200D3
:102B60001C3A040000271600FAB2954238D91C20FE
:102B70007A1C5043305C884230D11C2662467E432A
:102B8000A5196A80052207212B71AA564A43D2183B
:102B9000D3170B409B18DB106B7100232B7605F0CD
:102BA0005BFFAB79A860FF2B01D00133AB71089DAF
:102BB000002D11D02B780025AB420DD01C235F4394
:102BC000E7193B7BAB4207D130000C300B22089950
:102BD000201817F051FCFD752800FEBD1700C3E753
:102BE000102D30D01C26754365192B716B71624610
:102BF00001230027AB7129706A802F7605F02CFF26
:102C0000A860E025089B6D00BB4215D01B78BB4235
:102C100012D0605D0B2270430C300899201817F019
:102C20002BFC635D5E43A619F775E0225200A35C9E
:102C30000133A3540125CFE71C23625D53430022D7
:102C4000E3181A73F1E7200001220027A568243059
:102C50000668AE4201D2350017000132D2B21C30F4
:102C6000102AF5D11C2632007A43A5182B716B71FE
:102C70000023019262462B760133AB7129706A8082
:102C800005F0EAFE089BA860002B0CD01B78002BF7
:102C900009D001980B220C300899201817F0ECFB92
:102CA0000023EB75C6E700237E43A4192373C1E715
:102CB000E0235B00C05C7047E0225200825C0300AE
:102CC00000208A4202D91C304843181870478022DD
:102CD0000023D200802183540200C900F832411839
:102CE000437083700370013013711360D380FF3021
:102CF0000132FF328842F3D17047F8B58023DB0000
:102D0000C35C04000E00032B13D9802700257F002D
:102D1000611CFF31601949193A0017F0EDF9C02321
:102D20000135FF359B009D42F2D103220133FF3371
:102D3000E2548023DB00E05C3100421CE25480223C
:102D400000022018520017F0D7F90120F8BDF8B59D
:102D500080250400ED00625D0800131E17D080225C
:102D600021008026520017F0C7F900277600625D27
:102D7000013A974209DA3802013739023200201845
:102D8000611817F0B9F9FFB2F1E701236255180095
:102D9000F8BD8023DB00C05C704700000122014BBE
:102DA0001A707047E0040020F7B5482013F0B3FD17
:102DB000272304000025262223210093083305F051
:102DC000ABFE2100744806F0CBFA744C5223072264
:102DD0000121200009F0E9FB2000714A714913F03C
:102DE0008BFD714B714A84331D70714B71481D60AE
:102DF0005D601D72DD601D616F4B2900DA6001228C
:102E00001D601A825D609D606C4BC5610362456206
:102E10008562C5620563456385631B3217F088F9D7
:102E2000FB232F00664C9B00664E2560E554300066
:102E300006220021013517F07BF9B7603773F7815F
:102E400037741436322DF2D100273D005E4E30002B
:102E500006220021013717F06BF9B571B5603573A3
:102E60001036102FF3D10F225849594817F004FBA0
:102E7000584B0F22E5545849584817F0FDFA584B63
:102E8000A522E5541133E554103BE550554B05217F
:102E9000E5500433E550544BD200E550534B5448B1
:102EA000E5503C23A350534A2026A1500432A5509C
:102EB000514A1931A5500432A550504AA35004324A
:102EC000A1504F4A0021A5500432A5504D4AA550AB
:102ED0000432A35064224C4BE2500433E5504B4B78
:102EE0004B4AE5504B4BE5500433E5504A4BE55017
:102EF0000433E2520122494BE254173217F018F919
:102F00000C220021464817F013F9B022002192004C
:102F1000444817F00DF94449444817F08DFA4449E4
:102F2000444817F089FA444C4448631CDD7708F0A4
:102F3000A9FB20001A4A424913F0DEFCB823414F96
:102F40009B00FD50002540333F4CFF18200032000D
:102F50000021403817F0ECF8200032000021203822
:102F600017F0E6F820001022002117F0E1F82561A3
:102F7000A582A575E57525765C34A742E6D1334C6C
:102F8000200008F07FFB324808F07CFF2000044A54
:102F9000304913F0B1FCF7BD540A0020400A00206C
:102FA000B800002097C400002C090020E093040022
:102FB0006415002018150020BC01002060EA000004
:102FC000B80A0020BC0A0020A80E00209AAF010019
:102FD000A80F0020FF040000A3AF0100B80F0020DD
:102FE0000F050000140500001C050000240500006A
:102FF000181000202C050000340500003C050000DE
:10300000440500004C050000540500005C0500006C
:1030100001080000840500008C05000092050000F6
:103020003010002038120020A9AF0100F814002051
:1030300047CD0100081500200C07002030070020B4
:103040006D300000F801002038020020F007002059
:10305000B00800205930000010B50400C03008F05E
:10306000F7FE200008F0B2FA200010BD10B50400F1
:10307000243008F0ABFA200010BD020020320378A3
:10308000002B04D101309042F9D118007047012083
:10309000FCE70000F7B5027803000191101E2FD065
:1030A00000272D2A01D10133013700240A201A7884
:1030B00011003039CDB2092D03D8444301330C1926
:1030C000F5E700262E2A11D15D1C0F480733009327
:1030D0002B78303BDAB2092A08D843430A21F61884
:1030E00013F05CFF009B01359D42F1D1074B5C431F
:1030F000A6190124002F04D101206643019B1E6004
:10310000FEBD6442F8E7C046A086010040420F00C1
:1031100010B512F09FFC4022014B1A6010BDC04652
:1031200080E200E00EB430B59AB01DAB040004CBD1
:1031300000680193002812D0A588E1884019491B36
:1031400017F000FB031E05DDA088C018E388984235
:1031500000DAA0801AB030BC08BC03B01847602168
:1031600002A817F0EFFA02A9014811F055F8F1E7AB
:10317000DC1B002070B5037804000B7042780D0052
:1031800002264A70002A05D08819E11C16F0B4FF07
:1031900066780236A278002A07D02100A8194331A8
:1031A00016F0AAFFA378F618B6B2300070BD000082
:1031B00010B505F051FCFA21890013F065FE0349B2
:1031C0000200034810F0F2FF10BDC046AFAF01008F
:1031D000DC1B0020F8B504000D001700012A02D8FE
:1031E00000263000F8BD0B7803704A784270402A00
:1031F000F6D8961CBE42F3DC0221002A04D06918DE
:10320000033016F079FFB1B27B1A9BB21A1CB42BB3
:1032100000D9B42292B20126A270B942E1D02000B6
:103220006918433016F068FFDBE7002302000380D3
:103230008370F832FE301360137103807047000012
:1032400013B50024019405F0B3F9019B58404840A0
:103250000190132005F0C8FBA040019B04345840A6
:103260000190012005F0F0FB202CF2D105F0F4FBD9
:10327000019B0422584001900023024801A908F054
:10328000A5FC13BD0C1B00200F4B70B5038002235F
:103290000E4D8370AA680333FF3304009A420FD3A4
:1032A0006E68010080368422300016F017FF002877
:1032B00006D001238422210030002B7316F01CFF5E
:1032C000280009F0E7F970BD434D0000AC1B002059
:1032D00030B50400174D8BB0280008F055FC2800CD
:1032E000250002A94335202208F0FEFC2800E11C3D
:1032F00002AA09F0B4FA2200453212782B78019222
:1033000022002000443212781021009263300A4AD1
:1033100012F052F9230000218222200073331A7028
:103320007C306167A1677A3A16F002FF01200BB08A
:1033300030BDC0460C1B0020B4AF010073B50400C3
:10334000FFF77EFF82221E4B52009968914205D3FF
:10335000596820008031803A16F0CEFE0223228880
:103360000193A378174E00933000174B174910F0C4
:103370001DFF2368164A1B021B0A934216D01549EB
:10338000300010F013FF2000FFF7A2FF051E14D03D
:103390002000FFF779FF1049002800D10F493000C5
:1033A00010F004FF01238434237006E0012530006F
:1033B0000B49843410F0FAFE2570280076BDC04613
:1033C000AC1B0020DC1B0020434D0000C4AF0100FB
:1033D000434D020006B001005FB0010083B0010060
:1033E0003CB0010010B5037A0400002B0AD005F0B0
:1033F00033FBFA2163688900C01A13F045FD236886
:10340000C01810BD05F028FBFA21890013F03CFD1F
:10341000F7E700000268F0B513000C00417C73333D
:1034200005001B7885B0002949D010211E000E40F0
:103430000B4230D0576F966F3B1263703B14A370F2
:103440003B0EE370331263713314A371330E3800F3
:1034500027702671E371314913F086FECA178B1865
:10346000534038002D49039313F098FD2B49070072
:10347000300013F079FECB17C91859403000019184
:10348000264913F08BFD3A000090039B2449254800
:1034900010F08CFE08262F686337380016F0D4FF32
:1034A000C5B26B1E02000E2B06D8A0193900D2B28D
:1034B00016F022FE7619F6B2300005B0F0BD23708A
:1034C000036801261A0073321278D20610D55A6F9B
:1034D0009B6F11126270A1701114120E22711A12D8
:1034E0006371A2711A141B0EE170E2712372083627
:1034F0002D682B0073331B787F2BDDD963352800B3
:1035000016F0A2FFC7B27B1E02000E2BD4D8A01962
:103510002900D2B216F0F0FDF619CCE740420F00B8
:10352000ACB00100DC1B0020F0B5036806000C0005
:1035300015001F009FB0002B4FD084331F78002F41
:103540004BD00800FFF771FE0322102315401D43E6
:10355000002320002570637031681D3243314330F1
:1035600016F0CAFD706800283AD0FFF73BFF230031
:10357000020A633318705A70020C000E9A70D870E9
:1035800005A930000393FFF745FF336805001E00CF
:103590004336202231000DA8029316F0ADFD04221F
:1035A000039915A816F0A8FD2A0005A916A816F07B
:1035B000A3FD2A002000029B2432033392B267301D
:1035C00000930DA9330009F0DFFF20002A00A73087
:1035D00005A9643516F090FDA57038001FB0F0BD48
:1035E00005F03AFAFA21890013F04EFCBFE700001B
:1035F000F0B506000F001500140085B0002A6CD04D
:103600000024642969D920222100280016F090FDA9
:1036100032003900337864322B70029264391278A8
:1036200089B2019151B200936A70A14200DB71E04E
:103630000F211140042900D96CE0881E44426041EA
:103640000139687748424141A97710210A401100A9
:10365000481E8141A970012129736431002A28D0B4
:103660006C2F26D9320030006C3212786930413A22
:10367000392A35D8320068321178027802381202BD
:103680000A4331006A310978007809040A4331009D
:103690006B31097800040906114332006632127852
:1036A00012020243300065300078A9606C210243A9
:1036B0006A6028000D30B94200D388E07F1AFBB25F
:1036C0001F1C0F2B00D90F27FFB23A00711816F0FC
:1036D00013FD0023ED196B730124200005B0F0BD2C
:1036E000340041780278090211438278653412046B
:1036F0001143C278607812060A4321780002084319
:10370000A17809040843E178AA60090601436960C9
:103710006D21CEE764229446B444019AA24254DD5E
:10372000102C52D06246125D413A192A1DD8211D33
:10373000621C03910199914211DD6146895C20234D
:10374000080098434138192805D90800303809285D
:1037500001D92D2909D1039B01329342EAD1072CCB
:1037600005DC2100643189B229E00134D5E701226A
:103770003100AA70029B653109781A780902114359
:103780003200663212781204114332006732127826
:1037900012060A4331006A603200693109786832E2
:1037A00012780902114332006A321278120411436E
:1037B00032006B32127812060A436C21AA60812211
:1037C0006A70803AAA772A7373E76421F7E71021B9
:1037D000009B024A11F0F0FE7EE7C046DCB001001B
:1037E00070B5062104001B2005F022F800211B20E3
:1037F00005F02CF8642005F027F9132005F0F4F803
:10380000012105001B2005F013F800201D4B19684D
:10381000814209D01C4BA8B21B881C4D1BB2C01A98
:10382000684313F0BBFB80B219232080A37005F01E
:1038300013F9FA21890013F027FB636A6060002BFB
:1038400001D01B68A360A36A002B01D01B68E36052
:10385000E36A002B01D01B682361236B002B01D08E
:103860001B686361636B002B02D000229B5E238385
:10387000A36B002B02D01B785BB2A37605F0ECF8AB
:10388000E06170BDC81E0020CE1E0020204E00004A
:10389000036842689B188B420BD943890289013324
:1038A0009BB243819A4207D2C3680133C3600020B0
:1038B00070470123016043810369013303610120E3
:1038C000F6E7000010B5094B0400C35C0120002B93
:1038D0000BD005F0C1F8FA21890013F0D5FAA7231F
:1038E000DB000100E018FFF7D3FF10BD92050000D8
:1038F00070B5C4888588E61C03000020AE4218DA43
:1039000064304243601CD88018680155D9881C680F
:10391000481CD88002206054D8881C68411CD9807B
:1039200011B209122154D98818684C1CDC80425409
:10393000012070BD70B5202504002A00002116F07A
:10394000F7FB2A006019002116F0F2FB200010227C
:103950000021403016F0ECFB0023236563655834EA
:10396000237070BDF0B585B00C1E009041D00B786F
:10397000002B45D0080016F067FD0026009D019041
:1039800040352B7E002B2FD02B78002B2CD05C23A6
:1039900073432800029316F057FD02000020030035
:1039A0000199521A0392019A934225D241277F42EC
:1039B000BC46EA18115CE25C8C446746192F01D8BA
:1039C0002031C9B241277F42BC4694446746192F33
:1039D00001D82032D2B201339142E4D0039B0130AE
:1039E000834201D30023DEE701365C35082EC8D1BF
:1039F0000024200005B0F0BD029A009B9446634469
:103A00001C00F6E7002313B5019311F06AFE104B7A
:103A100004001A6801231A4205D003210D4A0193BC
:103A200013688B4313600C4B0C4A1B889BB21360CA
:103A300004230B4A11680B43136030BF019B002B1A
:103A400002D0062012F030FA200011F04EFE13BD15
:103A500000002F402800034052F2FF0F04000340F3
:103A600010ED00E010B5040011F03BFE044A0549DA
:103A70001368A4050B402343136011F036FE10BDFC
:103A800004E400E0FFFF3FFF10B54024044B1C603E
:103A9000044B98650320FFF7E5FF034B1C6010BD46
:103AA00080E100E00000002000E100E010B504002B
:103AB00011F0B8FF054811F0C3FF002C04D00448F2
:103AC000FFF7E2FF11F0CEFF10BDC046FFFF000080
:103AD0001131000013B50D4C012221780C4805F07E
:103AE00073FFFFF765FB23780A4A002B00D10A4ACF
:103AF0000A4B1978074B002900D1074B08490948A0
:103B000009780091084910F051FB13BD6E10002098
:103B1000540A0020BAC20100FDB10100BC0000201F
:103B2000C4000020DC1B0020E6B0010010B500211D
:103B3000212004F07DFEFFF765FF10F0A1FC034B90
:103B400001211860212004F073FE10BDBC19002073
:103B500010B504000021212004F06AFE200004F0CA
:103B600073FF0121212004F063FE10BD10B504F0A5
:103B70001FFD4140080C4840CC210002000A090604
:103B8000084310BD522373B5094C0A4D2360263BF0
:103B9000094E2B60094B3360FFF70AFB3368084975
:103BA00000932B682268074810F000FB73BDC046E5
:103BB000C8000020D0000020C0000020F70800004E
:103BC000FEB00100DC1B002007B5020003005032EC
:103BD00014DB3C20834200DC1800082350213C22E7
:103BE00000934942063B10F043F8C1B2490000205F
:103BF00010F034F8034B1B6858430EBD5020404270
:103C0000EBE7C046D000002010B5104805F0B8FF23
:103C10001423040000201C4212D004F01DFF0C4AA3
:103C20001368002B02D11060012009E00949C31A72
:103C3000096849008B4204D9E10602D400201060D3
:103C400010BD054909688B42EED9F7E7540A0020F8
:103C5000B0010020C8000020C0000020044B1B78E9
:103C6000002B02D0034B186870470348FCE7C0469E
:103C7000601500205C1500208D675944044B1B78AB
:103C8000002B02D0034B186870470348FCE7C0467E
:103C9000601500205415002000007A42034B0820D4
:103CA0001B78002B01D0024B18787047601500205C
:103CB00061150020034B08201B78002B01D0024B1C
:103CC000187870476015002058150020F7B50400DB
:103CD000FFF7D4FF071CFFF7E1FF0500FFF7EAFF3E
:103CE000144E15490190381C13F06CFF13F002FBC1
:103CF000AE400100300013F0C7F85127474364007D
:103D0000641B0B340600BF080820A400002C08DD4B
:103D1000A9006418601E13F041F9019B4343180089
:103D20000830FA2170438900C01913F0ADF8013052
:103D3000FEBDC04640420F0000007A44F0B58BB093
:103D4000FFF78CFF051CFFF799FF0790FFF7A6FF11
:103D50000890FFF7AFFF0990FFF72AFA3C4B3D4A66
:103D60001B78002B00D13C4A3C4C3D49200010F010
:103D70001DFA002305933B4B3B4F04931023039301
:103D8000023B029304330193099B38000093079A86
:103D9000089B291C05F0F2FA344E306000280CD044
:103DA000FFF706FA20003268FA24314910F0FEF9D4
:103DB000A400200004F048FEFBE701230221009349
:103DC00038002C4B2C4A07F015F93060002806D03B
:103DD000FFF7EEF920003268284910F0E7F93800C3
:103DE000274905F00AFDFFF775FE2649281C13F048
:103DF000E9FE13F07FFA24490600079813F0E2FE6B
:103E000013F078FA0500FFF7D3F9FA2130008900A2
:103E100013F0C0F80F00FA213000890013F034F8D5
:103E2000099B06000393089B28000A21029313F0C4
:103E3000B1F8280001910A2113F026F83B00009008
:103E400032002000114910F0B1F90BB0F0BDC046AE
:103E50006015002019B1010047CD0100DC1B0020D6
:103E60001EB10100CDCCCC3F540A0020AC0A00208A
:103E700032B10100211000000F1D000046B1010009
:103E80009D2D000000007A44000020415CB101003B
:103E900070B5194C194D23782A680133DBB2013211
:103EA00023702A60042B10D9FFF782F914491548B2
:103EB00010F07CF90121144805F014FC642004F092
:103EC000C3FDFFF73BFF002323702B68092B11D99B
:103ED000FFF76EF90D490B4810F068F9642004F003
:103EE000B3FDBFF34F8F0A4B0A4ADA60BFF34F8F1F
:103EF000C046FDE770BDC046B00A0020E4040020C3
:103F000080B10100DC1B0020540A00209DB101009B
:103F100000ED00E00400FA05030030B5104A007817
:103F20001D0050401A005C780935E418A2420DD1FA
:103F300000229C784233D1B28C420FD90132112A2F
:103F40000CD041010818995C4840F4E70132AA42BC
:103F5000EED04101081891784840E7E730BDC046EF
:103F6000A5B5020010B5037804009A0701D500201A
:103F700010BD0F229B081A40072A02D00E221342BE
:103F80000AD1A378002B07D022000B4B43324333D6
:103F900012781B789A42EAD02000FFF7BDFF01009B
:103FA0000648FEF7B7FD0028E1D000203E226378E6
:103FB0009A424041C0B2DBE72C090020B40900203E
:103FC000F0B5837805000024C3B0052B00D8A4E029
:103FD00003000F2243331B789343802B00D09CE0D7
:103FE000030044331F787B0700D496E0020045327B
:103FF000537816781B023343967836043343D678C9
:1040000036061E4304F028FD454B01949C461A6871
:10401000002A74D04349821A8A4270D80134E4B22B
:10402000019A043301320192042AF0D1032C6DD895
:10403000002361469A008958002963D13A4B9B18A6
:10404000A222D2009850FFF7B3F8384C3A00384912
:10405000200010F0ABF802A8FFF7E7F803222B7856
:104060001A402C23134302AA13706A7802AB5A70C9
:10407000002A03D0E91CD81C16F03EF8432302AAFC
:104080009B1881221A7013AB7F3A1A704523FC35B6
:104090002D7802AA6DB29B181D7046239B181E70C6
:1040A000472302A9320A5B181A70320C14AB1A703B
:1040B00049234A205B18360E1E7002AB1D490822A8
:1040C000C01816F019F80F2302AA28009370FFF702
:1040D0007BFD0621414340000FF0C0FD0500FFF7C6
:1040E00067F82A001449200010F060F8280004F056
:1040F000ABFC124802A9FEF700FE01240DE00022ED
:104100001A608DE70133042B93D19CE7FFF750F839
:104110000B49064810F04AF80024200043B0F0BDD7
:10412000C80F0020BFD40100B80A0020DC1B00200B
:10413000C8B101006F090020D7B101007C15002033
:10414000B5B1010070B505001400002914DB0B00A7
:104150008268083393420FD8436808225E18300003
:10416000210015F0BBFF002806D001230822210002
:1041700030002B7315F0C0FF200070BD70B5050036
:104180001400002914DB0B008268583393420FD8C7
:10419000436858225E183000210015F09FFF002868
:1041A00006D001235822210030002B7315F0A4FF04
:1041B000200070BDAA2170B504000C4D020049001A
:1041C0002800FFF7BFFF2200AE2128000832490077
:1041D000FFF7D4FF2200DA21280060324900FFF700
:1041E000CDFF280008F056FA70BDC046AC1B002079
:1041F000B02270B5520004000021B83015F098FFCD
:10420000AE231E4D5B00AA689A4206D36968082255
:1042100055312000FF3115F06FFF26002368184A42
:104220001B0208361B0A934219D1DA23AA685B00E5
:104230009A4206D3696858225D313000FF3115F08B
:104240005BFF8323AA689B009A4207D3200069681A
:104250005822B5316030FF3115F04EFF70BD20009F
:10426000002104C0042215F063FFB02200213000B9
:1042700015F05EFF2000FFF79DFFEFE7AC1B00206D
:104280000FBB0100582359430A0070B5094D08328D
:104290005D3104008218FF312800FFF76FFFAA216B
:1042A000220028004900FFF74DFF280008F0F2F92E
:1042B00070BDC046AC1B002037B5184C200005F07F
:1042C00007F90023164A1370164A1360164B64222E
:1042D0001B68002B02D005335B009AB20223102129
:1042E00000932000114B06F0FDFD114D28600028C1
:1042F0000FD0FEF75DFF2A680E490F480FF056FFFA
:104300000121200005F0EEF9642004F09DFBFFF789
:1043100015FD0122094B1A7037BDC046540A002012
:10432000E0040020B0010020C80000207602000058
:10433000AC0A0020E8B10100DC1B0020EC040020E6
:10434000F0B5574A85B001230292E1210022554C75
:104350005B420093490201922000534A0FF082FB16
:10436000FA20800004F070FB504A514920000FF001
:104370001DFFFEF7FBF8FEF75BFA4E48FFF738FF2C
:104380000120FFF793FBFEF713FF20004A490FF0CF
:104390000DFF4A4D2B68002B02D1FFF7E7FB286089
:1043A000FEF706FF2A68464920000FF0FFFEFEF7E1
:1043B000FFFE200043490FF0F9FE434E3000FEF7A8
:1043C000BDFF002864D0FEF7F3FE33004333200026
:1043D0001B783E4A3E490FF0E9FE3E4B3E4A00251F
:1043E0005A603E4A1E60DA6001221A749D60FEF730
:1043F000DFFE96233A4A3B495B0020000FF0D6FED1
:1044000039483A4B43623A4B83623A4BC3623A4B68
:1044100003633A4B43633A4B8363FFF7E1F9394F48
:104420003E6004F019FB384BF850B823374F9B001F
:10443000FE505C263000684301353818FFF77AFAE1
:10444000082DF7D1FEF7B4FA3148FEF759FB314891
:10445000FEF73DFC3048FEF772FBFFF76FFCFFF7FD
:1044600091FBFFF737FBFFF727FF04F0F5FA2B4B23
:104470001860FEF79DFE2A4920000FF097FEFEF718
:1044800097FE7822200027490FF090FE05B0F0BD7E
:10449000FEF78EFE200024490FF088FE9DE7C046FF
:1044A000204E0000DC1B002022080000F9B10100B2
:1044B000FFB10100F40400201EB201002809002011
:1044C0002BB2010040B201002C0900208F0900200E
:1044D0004EB20100BC01002064150020E0930400EE
:1044E000D2B8010075B2010018150020701000202C
:1044F00078150020E8040020E4040020EE040020E9
:10450000F0040020B80A002084050000F801002013
:10451000B40900207C15002074100020F401002054
:1045200088B2010094B2010061B20100F0B5827856
:10453000437806009B1880220233C5B05200934294
:1045400008D9FEF735FE4E494E480FF02FFE0020E9
:1045500045B0F0BD04A9FEF70DFE041EF1D04A4996
:104560004A4B30785A5801325A500431820700D5EC
:10457000474900275A58474D01325A50280004F045
:10458000A7FF454B1F70FEF743FAFEF711FE03210C
:1045900032783C4893060A40B1781B0F019171783C
:1045A00000913E490FF002FE3B002200280004A9C2
:1045B00006F05CFB3A4E3B4B30601F70B84209D0AE
:1045C000FEF7F6FD326838492E480FF0EFFDFEF792
:1045D00087FABCE704F040FA0700344B1E686436E3
:1045E0002D4B1B78002B0AD104F036FAC01BB042C9
:1045F00005D2FEF78DFD012004F026FAF0E7280031
:1046000005F0BEFA012307001F4018422AD0284AAD
:10461000B1261368FA2701331360FEF779F92000F9
:10462000FFF754FB194DF600AB59BF00C418AC514D
:10463000BC420DD33900200012F026FC1D4B39007E
:10464000EA581018E8502000039212F0A3FCA95178
:10465000FEF7AEFD18490B480FF0A8FDFEF740FA33
:10466000012075E7FEF7A4FD144906480FF09EFDF2
:10467000FEF736FA124A380013680133136067E711
:10468000A3B20100DC1B002064050000B80A002072
:104690006C050000540A0020E0040020B9B20100BB
:1046A000AC0A0020EC040020D2B20100C0000020BF
:1046B000781500207C050000E2B20100F2B2010092
:1046C000E404002010B5C2B002A8FEF7AEFD1E4BF8
:1046D0004B201A681D4C110C130E4B405340110A0D
:1046E0004B406946CB720A23FF330B812388B421E8
:1046F00001339BB2238068440092154A10F05CFF9E
:104700006B469872FEF754FD2288124C1249200025
:104710000FF04CFD02A8FFF7FFFB01000F48FEF76A
:10472000F9F902A8FFF702FF002809D0FEF740FDC3
:104730000B4920000FF03AFDFFF7BEFD42B010BD5F
:10474000FEF736FD0749F4E728090020801900200C
:1047500003B30100DC1B002017B30100B4090020E3
:1047600021B301002DB3010030B5C3B0040002A88D
:10477000FEF75BFD244B694643331A786B46DA72C9
:104780000A23FF330B814B2169440C7013A90A7073
:104790004D2244216A4411704E224F201B4D6A4421
:1047A0002B880C3111700133194A9BB22B80603178
:1047B00000926844174A10F0FFFE6B46043098726E
:1047C000FEF7F6FC2B88144D2200144928000FF048
:1047D000EDFC02A8FFF7A0FB01001148FEF79AF9D3
:1047E00002A8FFF7A3FE002809D0FEF7E1FC0D495F
:1047F00028000FF0DBFCFFF75FFD43B030BDFEF794
:10480000D7FC0949F4E7C0462C0900208019002094
:104810008F0900203BB30100DC1B002042B30100E4
:10482000B409002021B301002DB3010030B5C3B09D
:10483000040002A8FEF7F9FC244B694643331A78BA
:104840006B46DA720A23FF330B814B2169440C70EB
:1048500013A90A704D2244216A4411704E224F2040
:104860001B4D6A442B88103111700133194A9BB2D9
:104870002B805C3100926844174A10F09DFE6B4615
:1048800004309872FEF794FC2B88144D22001449D2
:1048900028000FF08BFC02A8FFF73EFB0100114837
:1048A000FEF738F902A8FFF741FE002809D0FEF70D
:1048B0007FFC0D4928000FF079FCFFF7FDFC43B0A9
:1048C00030BDFEF775FC0949F4E7C0462C0900200D
:1048D000801900208F0900203BB30100DC1B002061
:1048E00054B30100B409002021B301002DB301002D
:1048F00070B5264B050084331B78254CC0B0002BC7
:1049000007D1FEF755FC234920000FF04FFC40B0C3
:1049100070BD0122204E002800D1022269463000DD
:10492000FEF702FE002803D1FEF742FC1B49EBE72D
:10493000FEF73EFC1A4A002D00D11A4A1A4B1B49B9
:1049400020000FF033FC6846FFF7E6FA0100184834
:10495000FEF7E0F86846FFF7E9FD00280FD0FEF704
:1049600027FC144920000FF021FC04F075F8124ACE
:10497000B060136801331360FFF79EFCC7E7FEF7D2
:1049800017FC20000D490FF011FCF5E72C09002061
:10499000DC1B00206CB30100BC01002078B30100D7
:1049A00066B3010056B801008F0900208DB30100E5
:1049B000B409002099B30100B8010020A5B301009B
:1049C000F0B50F0091B0D4490400150015F02AFD90
:1049D000002818D1D14B43331C7804F03DF8FA215C
:1049E000890012F051FACE4B1A7ACE4B002A00D130
:1049F000CD4B0293CD4ACE4BCE4901900094380066
:104A0000FEF790FB25E02000CB4915F00BFD0028B8
:104A100023D1CA4BCA481C68CA4B1D68CA4B1B68C5
:104A20000893CA4B1B680993C94B1B680A93C94B6F
:104A30001E68FEF7AEF90A9B04900293099B2200C0
:104A40000193089B38000093C3492B000396FEF79F
:104A500069FB0125280011B0F0BD2000BF4915F009
:104A6000E1FC002810D1AE48057A002D07D0FEF7F2
:104A7000B9FC0200BA493800FEF754FBEAE7B9492D
:104A80003800FEF74FFBE4E72000B74915F0CAFCF9
:104A9000061E20D1B54C2000FEF7A2FE2588B44B9F
:104AA00064249D4209D8B34B34009D4205D9B24BD2
:104AB0000921E81812F072FAC4B203F0CDFFFA210E
:104AC000890012F0E1F923002A00AC490090380077
:104AD000FEF728FBBDE72000A94915F0A3FC061E40
:104AE00000D0BCE0A748FEF7E3F8A74902000B900E
:104AF0003800FEF717FB0896089B0B9A9342A8D044
:104B00000899A048FEF7D8F8041E00D18DE03B6854
:104B1000002B05D0FB88BA88303B9A4200DB98E72F
:104B200003F09AFFFA21A3688900C01A12F0ACF9C9
:104B300005007B48037A002B7CD0FEF753FC3C2118
:104B4000401B12F0A1F93C21050012F023FA2800C5
:104B50000C913C2112F098F91821050012F01AFA74
:104B600028000D91182112F08FF9884B8849C01840
:104B700012F010FA0D008749280012F085F98649D5
:104B80004619280012F080F98449361A280012F0DC
:104B90007BF9361A3000824912F076F97E494519C0
:104BA000300012F071F96E212B1AFF3130006E25A2
:104BB000099312F069F90526FF354543099B9921B0
:104BC0005D1B33006B4302331800099312F05CF94C
:104BD0000A9099200A9B31005843023012F054F990
:104BE0000135704B099A2D1AEDB203209A4200D973
:104BF000F4300A9B217BC01822786B4BC0B200298D
:104C000001D023000C330C99049006910D99039563
:104C10000591A17902910421615601910220215E42
:104C2000380000916149FEF77DFA08980130C3B25F
:104C3000089361E7217B22785B4B002901D0230098
:104C40000C330395A1790291042161560191022050
:104C5000215E380000915649FEF764FAE5E720002E
:104C6000544915F0DFFB002806D02000524915F00A
:104C7000D9FB002800D0AFE00123040014224F49E3
:104C800010005843085C002801D00134E4B201331D
:104C9000332BF5D1220038004949FEF743FA3B682F
:104CA000002B00D0D5E60893089BA34200D1D0E6A4
:104CB0000023424A1D001600117D002900D185E025
:104CC0000899994200D07FE003F0C6FE1423FA2130
:104CD0005D437619337989000993F3687579C01AB1
:104CE00012F0D2F810230690F356380005931222E2
:104CF000B35E34490493737A099A0393337A029327
:104D0000F3790193B37900932B00FEF70BFA089B1C
:104D10000133DBB2C7E7C046CAB301002C0900204B
:104D200064150020B5B30100B3B30100F9B101006F
:104D30008F090020D1B301002BBD010070100020AD
:104D40007C15002078150020E8040020E4040020F1
:104D5000B8010020B4010020EEB3010042B601000A
:104D60001CB4010028B4010032B401001815002061
:104D700067100000E40C00001CF3FFFF3CB40100CE
:104D800055B40100741000205BB401006CFA0A00F5
:104D9000B13A0200AC8E0000B4050000B03A020047
:104DA000948E0000F905000099CD010065B4010062
:104DB00092B40100B0B40100BBB40100B80A0020F5
:104DC000C5B40100CDB401000133DBB201351432AA
:104DD000322D00D070E79AE72000C24915F022FB7F
:104DE000061E42D1C04D38002B0043331B78BF4A0A
:104DF000BF49FEF797F92B0073331B78DB0621D5EB
:104E00006C6FBC49200012F0AFF9CA178B185340E1
:104E10002000B849089312F0C1F8AD6F0400B549FD
:104E2000280012F0A1F9CB17C918594001912800A8
:104E3000B04912F0B3F822000090089B3800AE4948
:104E4000FEF770F93B68002B00D002E63800AB4952
:104E5000FEF768F9AA4B38009A5DAA490136FEF7B9
:104E600061F9202EF6D1A8490AE62000A74915F0DD
:104E7000D9FA002829D19C4B1A0073321278D20635
:104E800021D55C6F9B4920009E6F12F06DF9CB1706
:104E9000CD18200097495D4012F080F89549040034
:104EA000300012F061F9CB17C91859400191300058
:104EB000904912F073F82B002200954900903800B9
:104EC000FEF730F9C5E59349DAE52000924915F07F
:104ED000A9FA00280ED1B222904BD200995C904AD8
:104EE000002900D18F4A90495B5C90493800FEF759
:104EF00019F9AEE520008E4915F094FA061E18D176
:104F0000FA218C4D8900E86811F0BEFF040003F01F
:104F1000A3FDAA68E9683300851A8D4206D25218AB
:104F2000FA21101A890011F0AFFF03002200824914
:104F3000DCE72000814915F075FA00282CD1AF225A
:104F4000764C7F4BD200E056A25E7E4B7E49E35604
:104F5000014004D5042501396D422943013149B28C
:104F6000CD17491969401925C9B26943163D019108
:104F7000C117294008188010744900903800FEF7C6
:104F8000D1F8B023724ADB003800E358A2587149C7
:104F9000FEF7C8F8023D5DE520006F4915F042FAC2
:104FA000002818D15D4A6D4BAC21D358C90003933A
:104FB0006B4B3800D3580293AD23DB00D3580193D9
:104FC000AE23DB00D3580093664BD3585258664942
:104FD000FEF7A8F83DE52000644915F023FA002803
:104FE00046D10E230493063B03930293033B0193A4
:104FF0003933009338005E4B5E4A5F49FEF792F802
:105000005E4B1D78002D00D123E55D4B5D4918688E
:1050100012F0D8FD12F06EF95B4B06005B49186880
:1050200012F0D0FD12F066F9FA2104008900300078
:1050300011F0B0FF0891FA213000890011F024FF2F
:10504000534B06001B7820000393524B0A211B7818
:10505000029311F09FFF200001910A2111F014FF2B
:1050600032000090089B38004B49FEF75BF8F1E4F2
:1050700020004A4915F0D6F900280FD1FDF794FC1D
:105080000400858CFDF77EFCE26803000292A268B2
:1050900043490192626800922A00B0E4200041492D
:1050A00015F0C0F9061E00D0CDE03F4D34002800B9
:1050B000FDF7FEFD089003F0CFFC0990089B9C4291
:1050C00076D021002800FDF7F7FD002807D0099AC7
:1050D0008368D31A354A934201D90136F6B20134B6
:1050E000E4B2EBE700B501002C0900208F09002095
:1050F00009B5010040420F0012B501002BB50100B7
:105100006F0900202FB5010046CD010034B5010024
:1051100016B501003DB5010045B50100B80A0020F3
:10512000D2B80100E5B80100910500004CB50100BE
:105130005CB50100BC0100206CB5010080B5010028
:105140007B0500007A050000030000808BB501009C
:105150007C050000ACB50100C5B501006C05000080
:105160007405000064050000D1B5010091BE010086
:105170006A02000065030000F6B50100601500201A
:105180005C15002000007A445415002000002041E6
:1051900058150020611500201BB601003EB6010025
:1051A00047B601006FB601007410002040771B0065
:1051B000C24B1A78C24B002A00D1C24B0093380070
:1051C0003300089AC049FDF7ADFF0025089B9D42BA
:1051D00000D13EE43B68002B05D0FB88BA88203B19
:1051E0009A4200DB35E42900B848FDF765FD041E4E
:1051F00026D08668002E23D0FA21099B89009E1BA9
:10520000300011F041FE04218446032061562278CB
:10521000CB1703400520205603245B18C1172140FB
:10522000AB4C09189B10AB488910A64200D8AA487D
:105230000290604600910190A8493800FDF772FF86
:105240000135EDB2C2E72000A54915F0EBF80028C2
:105250004FD1A44EB023F478A34D22005B00295C0B
:10526000002901D00132D2B258309842F7D1002142
:105270000B00685C002801D00133DBB2B02058314C
:1052800040008142F5D101933800062397490094EC
:10529000FDF748FF0025ECB2012D23D85823340038
:1052A0006B430834E418237A002B16D0002390486F
:1052B000027A9A4203D0FEF795F86368C31A452232
:1052C000012D00D90D320293237A380001932378FF
:1052D000884900932B00FDF725FF0135062DDAD113
:1052E000FFF7B7FB5823023CE4B25C43B8343419EF
:1052F000D9E72000804915F095F8002811D17F4B9F
:105300001A787F4B19786E4B002900D16D4B7D497F
:1053100008786B49002800D16A4900917A49FFF763
:10532000D6FB2000794915F07DF800280FD1634B9A
:10533000634C1B78002B00D1624C7548FDF79DFE35
:10534000744B002800D1744B22007449CEE5200034
:10535000734915F067F8002812D1724A724B995CB4
:10536000574A002900D1574AAB21C9005958019129
:105370006E4959580091A621C9005B586C499EE5B9
:1053800020006C4915F04EF800280BD15D4B4C4ABB
:105390001B78002B00D14B4A67493800FDF7C2FE4D
:1053A000FFF757FB2000654915F03CF8002807D1AE
:1053B000534B434A1B78002B00D1424A6049ECE72B
:1053C0002000604915F02EF800281DD1002103228D
:1053D0005D4B5956CB1713405C4A5B180020125E98
:1053E0005B489B10014004D5042001394042014331
:1053F000013149B2C817091841401920C9B24143C7
:1054000000915449FFF763FB2000534915F00AF857
:10541000002819D1B423514A9B00D25C504B002A7A
:1054200000D1504B0021B0200A004F4C8000655C39
:10543000002D01D00132D2B258318142F7D1009211
:105440004A494B4AFFF743FB002D01D1FFF702FB0E
:105450002000484914F0E6FF00280AD1B2230121B8
:10546000314ADB00D15444493800FDF75BFEFFF7B9
:10547000F1FA2000414914F0D5FF002805D1B223EC
:10548000294ADB003E49D054EEE70E2220003D4978
:1054900014F0E1FF00287BD120000E3014F0CBFD8A
:1054A000C3B25A1E0E2A01D9FFF7D3FA1E49364A53
:1054B0008B543649C2B2FFF7DEFAC046F001002035
:1054C000D2B80100E5B8010076B6010074100020E2
:1054D000277B1B00BAB3010047CD010090B6010045
:1054E000A5B60100F4040020B4050020ADB601000B
:1054F00064150020C3B60100D8B60100C400002026
:105500006E100020BC000020DEB60100C0BD01000E
:10551000D00100202AB90100BFB30100F1B601009B
:1055200003B7010092050000B80A002044050000FE
:105530000DB7010026B701002CB7010036B70100F6
:105540003EB7010046B70100F0040020EE04002041
:10555000030000804BB7010062B701003812002041
:1055600008150020C4B301008D12002066B70100A9
:10557000F81400207EB701008CB7010094B7010039
:10558000A3B70100ACB701009105000053B50100BD
:1055900005222000CC4914F05EFF002821D1637958
:1055A000002B1CD00534200014F04EFF0F2816D815
:1055B0000F222100C54814F05FFFC54800220300F8
:1055C00072331A7002008023733211785B420B43EE
:1055D0001370FDF759FE2200BE49FFF74CFABE4991
:1055E00042E72000BD4914F01DFF002803D1B74A4F
:1055F000BB49FFF740FA2000BA4914F013FF031E1D
:105600000CD1B348102102004367733283671378CB
:105610008B431370FDF738FEB34925E709222000BC
:10562000B24914F018FF089000285BD109342021FA
:10563000200014F0E9FE061E52D0089B0EA903704C
:105640002000FDF727FD002848D0701C0FA9FDF7AA
:1056500021FD002842D0A64A0E9B9918A54A9142E6
:105660003CD8A4490F9A5018A349884236D8984884
:1056700010240100436782677331097813430A00DD
:10568000A243002B01D022000A43030073331A7097
:10569000FDF7FAFD0E9C9949200011F065FDCA172F
:1056A0008B18534020009549089311F077FC0F9E0A
:1056B00004009249300011F057FDCB17C91859402A
:1056C000019130008D4911F069FC2200089B8C4942
:1056D00000903800FDF726FDFFF7BCF98949C3E6C5
:1056E0008949C1E689491022200014F0B4FE011E48
:1056F00014D120000A22103014F0ECFF0100844B7A
:105700003C390200994207D8FA239B004343814960
:10571000CB608149FFF7AFF98049A5E620008049B9
:1057200014F080FE002804D10130FFF7E1F87D4934
:105730009AE620007C4914F075FE002803D1FFF79B
:10574000D7F87A4990E62000794914F06BFE0028DA
:1057500003D1FEF7B7FF774986E677490522200097
:1057600014F079FE011E0FD1601D102214F0B2FF5B
:105770000400C0B2002805D0FEF7F6FF6F49E2B280
:10578000FFF779F96E496FE66E490622200014F0A2
:1057900062FE011E0DD1A01D102214F09BFF04001B
:1057A000C0B20028EED0FFF741F86749E2B2FFF738
:1057B00062F92000654914F035FE002808D1012265
:1057C000634B1A70FEF786F9FCF74CFE61494BE615
:1057D0002000614914F026FE002808D100225C4B0D
:1057E0001A70FEF777F9FCF73DFE5C493CE62000B5
:1057F0005B4914F017FE002806D10122594B1A709C
:10580000FCF730FE58492FE62000584914F00AFEF4
:10581000002805D1534B1870FCF724FE544923E6A9
:105820002000544914F0FEFD002805D10121524A00
:10583000524BD154524917E62000524914F0F2FD60
:10584000002804D14C4A4D4B4F49D0540CE620005F
:105850004E4914F0E7FD00280FD1A622464BD20096
:1058600098504B4A4B4998504B4A985004329850A4
:1058700010329850494A9850F6E52000484914F0F3
:10588000D1FD002812D14748FDF7F7FB041E0BD0CD
:105890000122454B25001A70FCF7E4FD380043490E
:1058A000FDF740FCFFF7D6F84149DDE5200041490E
:1058B00014F0B8FD002800D080E03B4B1870FCF7D6
:1058C000D1FD3D49D0E5C046BBB701008F0900209E
:1058D0002C090020C1B70100CAB70100D2B70100EE
:1058E000D7B70100E0B70100EFB70100F8B701003A
:1058F000804A5D050095BA0A002A751540420F00DE
:1059000016B5010002B801000CB8010017B801007B
:1059100044510100BC01002028B8010032B8010048
:105920003EB8010045B801004FB801005CB8010065
:1059300067B801006CB8010077B801007DB80100BC
:1059400089B8010090B8010097B80100A4B801001F
:105950006E100020AFB80100B7B80100C3B8010055
:10596000CCB80100BC000020D5B80100DFB80100B0
:10597000E9B80100F4B80100B80A0020920500005F
:1059800001B9010008B9010016B901001EB90100F2
:10599000340500002EB90100440500005C0500003C
:1059A00038B90100D0010020F001002041B9010008
:1059B0004BB9010056B9010060B9010020005349FC
:1059C00014F030FD061E0AD101002022504814F0C8
:1059D000AFFB504B1E70FCF745FD4F4944E50B22D1
:1059E00020004E4914F037FD00283FD126000B3629
:1059F00031004B48FDF7B6FF089000280BD001009E
:105A00002022434814F078FBFCF72CFD089A454906
:105A10004032FFF730F83B68002B25D1300014F0FE
:105A200013FD3F2820D93A4B4B3409941C000893AE
:105A3000002133780FA803707378102281704370AF
:105A400014F048FE089B0236187001330893099B36
:105A50009E42EDD1FCF706FDE17863782278019152
:105A6000A1780091304934E63049FDE40522200058
:105A70002F4914F0F0FC00280FD164792300303B4B
:105A8000DBB2022B07D82B4A1370FCF7EBFC220089
:105A90002949FEF7F0FF2949E6E42000284914F0DF
:105AA000C1FC061E10D10100B022264814F040FBB4
:105AB000B02231005200244814F03AFB2348C6704B
:105AC000FEF778FB2249CFE42000224914F0AAFC1B
:105AD000002803D1FCF7C6FC1F49C5E420001F497C
